:020000040800F2
:1000000070BA00206D660008010C0008030C00089F
:10001000050C0008070C0008090C0008000000008F
:100020000000000000000000000000000B0C0008B1
:100030000D0C0008000000003734010819640008A6
:10004000876600088766000887660008AF610008B9
:1000500087660008876600088766000887660008CC
:1000600087660008876600088766000887660008BC
:1000700087660008876600088766000887660008AC
:10008000876600088766000887660008876600089C
:10009000876600088766000887660008876600088C
:1000A000876600088766000887660008876600087C
:1000B00087660008034A000887660008876600080C
:1000C000876600088766000887660008876600085C
:1000D00087660008C1650008876600088766000813
:1000E000876600088766000887660008876600083C
:1000F000876600088766000887660008876600082C
:10010000876600088766000887660008876600081B
:1001100087660008876600087F4A0008876600082F
:1001200087660008876600088766000887660008FB
:1001300000F002F800F078F80AA090E8000C824481
:100140008344AAF10107DA4501D100F06DF8AFF25E
:10015000090EBAE80F0013F0010F18BFFB1A43F0A5
:1001600001031847782B0300982B03000A444FF033
:10017000000C10F8013B13F0070408BF10F8014B06
:100180001D1108BF10F8015B641E05D010F8016B4B
:10019000641E01F8016BF9D113F0080F1EBF10F8AF
:1001A000014BAD1C0C1B09D16D1E58BF01F801CBD2
:1001B000FAD505E014F8016B01F8016B6D1EF9D555
:1001C0009142D6D37047000000230024002500266A
:1001D000103A28BF78C1FBD8520728BF30C148BFAA
:1001E0000B607047662927F02083642911F06E8622
:1001F000752911F06B86782911F0A486632912F015
:10020000B883732912F0BD83002070471FB511F029
:1002100076FF12F00BFC04000020002126F030F9DC
:10022000E0601FBD10B510BD12F004FD1146FFF7D0
:10023000EDFF00F0DCFB12F022FD03B4FFF7F2FF4C
:1002400003BC06F065F900000B49D1F800C04A680C
:100250005CF8043B1068184442F8040B8C4528BF36
:10026000A1F1DC0C8A4228BFA1F1DC02C1F800C078
:100270004A6020F00040704704A2002086B04FF092
:1002800000091826CA460DF1140BF5A0CDE900604F
:100290001823D222F0211E2004F05DFB48E004F078
:1002A0002EFD00244FF47A78404606F008F9641CCD
:1002B000E4B20A2CF8D304F009FE81B2EBA011F0ED
:1002C00095FD0422D702ED49384604F052FDEB4D6E
:1002D0000024EBA0295D11F089FD641CE4B2052C1B
:1002E000F7D3404606F0EBF8E4490422491D3846AE
:1002F00004F073FDE14D002402AF4FF01E086D1DA8
:10030000E5A0295D11F072FD2A5DE9A102A811F0B6
:1003100079FDC4EB041108EB41001823D222F0212F
:10032000CDE9006704F017FB641CE4B2052CE7D3A9
:1003300000224FF4487311461046CDE900AB0DF092
:100340008CFCDCA011F052FDB9F1000F9DD0A6E7A6
:100350000EB5E74C002502AED4F8940170B1002030
:10036000C4F894010023CDE900560122194618462D
:100370000DF073FCDFA011F039FDEDE70120EFE790
:1003800094B00C250AAF0DF1380818260DF1480974
:100390004FF0080A4FF42F7B06A805F06FFD9DF87B
:1003A00021009DF8221000EB800001EB4000B0FB23
:1003B000F5F105FB110404B90C249DF81C000DF1A6
:1003C000080C9DF81F309DF81E209DF81D108CE82C
:1003D0000F009DF81B109DF81A00CDE900019DF853
:1003E00019309DF81820CFA10AA811F00BFD9DF837
:1003F00024009DF826209DF825108DE807009DF823
:1004000023302246CCA10EA811F0FCFCCEA0CDE9F1
:1004100000601823D222A0211E2004F09CFA182389
:10042000D22246211E20CDE9006704F094FACDE9DE
:1004300000681823D22264211E2004F08CFA9DF853
:100440001C000DF1040C9DF81F309DF81E209DF836
:100450001D108CE80F009DF81B0000909DF81A30CD
:100460009DF819209DF81810B9A011F0BFFC9DF857
:1004700024009DF820309DF826209DF825108DE859
:100480000F009DF823309DF822209DF82110B6A082
:1004900011F0ACFC0022CDE900A95B4611461046E4
:1004A0000DF0DBFB78E70EB5002402AD08264FF413
:1004B0001677641CE4B22146B2A011F097FC00222A
:1004C000CDE900653B46114610460DF0C6FBF0E74E
:1004D0008CB00024442004F0A6FEB04DB04E0AAF0C
:1004E0004FF0080805F0F0F8286826F0F9FD0246FC
:1004F0000B46ACA102A811F085FC306826F0F0FD97
:1005000002460B46A9A106A811F07CFC641CE4B2CB
:100510002146A8A011F06AFC0023CDE90087012242
:10052000194618460DF099FBDCE70EB5002402AD24
:1005300008264FF49677641CE4B22146A2A011F07D
:1005400055FC0022CDE900653B46114610460DF0F2
:1005500084FBF0E70EB5002405F0CCFD9FA011F060
:1005600045FC02AD08264FF4C877641CE4B221466E
:100570009EA011F03BFC0022CDE900653B461146F0
:1005800010460DF06AFBF0E70EB500249B4813F00F
:10059000A3F89B4813F02CF99A4813F0A5F99A4850
:1005A00013F02AFC994817F093FC994818F0EEFDD7
:1005B000984819F0A9F9984819F0CAFA974819F01B
:1005C0009BFB974819F084FC964819F03BFD964830
:1005D00019F07AFD4FF4FA6502AE08274FF4FA7865
:1005E0000EF09EFA284614F081FD0EF09AFA284685
:1005F00014F07CFD0EF0C9FB284614F077FD641C56
:10060000E4B2214689A011F0F1FB0022CDE9007689
:100610004346114610460DF020FBE1E72DE9F04F6F
:100620008BB00EF092F987A011F0E0FB09A80BF057
:10063000D2FF012109AA084609F091FB0EF05AFAEF
:10064000DFF81C9299F80010491C89F800100EF090
:1006500055FA15F075FB15F073FB014602E1000039
:100660004D32355038305F4F464600000D0A204964
:1006700044CEAAA3BA2578200D0A0000000000206D
:100680000D0A20D0B4C8EBB5C4CAFDBEDDCEAAA306
:10069000BA2564200D0A00000D0A20B6C1B3F6B5D4
:1006A000C4CAFDBEDDCEAAA3BA2564200D0A00008F
:1006B00025642C002D2D2D2D2D2D2D2D2D2D2D2D69
:1006C0002D2D2D4D32355038305F7461736B207293
:1006D000756E6E696E672D2D2D2D2D2D2D2D2D2DC9
:1006E0002D2D2D2D6D61696E2E632009200A0000CD
:1006F000000022422D2D2D2D2D2D2D2D2D2D2D2D7A
:100700002D2D2D2D4C45442D2D2D2D2D2D2D2D2DCB
:100710002D2D2D2D2D2D6D61696E2E632009200A42
:100720000000000025642564256425642D256425CA
:10073000642D25642564000025642D256425642D21
:10074000256425640A00000074696D65212121007B
:100750002564256425642564C4EA25642564D4C21F
:1007600025642564C8D5200025642564CAB12564A4
:100770002564B7D625642564C3EB20D0C7C6DA2527
:10078000640A00000D0A66656564646F67735F74D0
:1007900061736B3D25640D0A0000000030000020ED
:1007A0003400002074656D3A3D25660068756D3A29
:1007B0003D2566000D0A636F6C6C6563745F746140
:1007C000736B3D25640D0A000D0A73656E645F74DA
:1007D00061736B3D25640D0A000000000D0A205373
:1007E00059535F7461736B200D0A00000D0A737911
:1007F000735F7461736B3D25640D0A00A1340108B9
:10080000F53601083D38010899390108917E010843
:10081000258D010805940108CD9A0108419C010825
:100820003D9D0108199F010861A001080D0A656D31
:1008300077696E64656D6F5F7461736B3D25640DE0
:100840000A0000002072756E6E696E67206865721E
:10085000652D4350555F496E6974C9CF2121200031
:10086000F400002093A011F0C1FA00240326CDE982
:10087000064609AD4FF40060CC210895CDE9021081
:10088000984A05940620CDE9000204942346AFF26D
:100890000732944894A1C4380CF033F9CDE90646E8
:1008A00004204FF0330B954A089505948DE8050810
:1008B0004FF4007A0023AFF263329048CDE903A4ED
:1008C0008FA1C4380CF01DF9CDE9064680278F4969
:1008D00010204FF00C08089505940023AFF2B532B4
:1008E0008DE803018948CDE9037489A1C4380CF06F
:1008F00008F9CDE906460520884A089505948DE853
:1009000005080023AFF237428448CDE903A480A153
:10091000C4380CF0F6F8CDE9064681490720089561
:1009200005940023AFF281428DE803017C48CDE9B4
:10093000037477A1C4380CF0E4F8CDE90646794990
:100940000A20089505940023AFF2CB528DE80301ED
:100950007448CDE9037474A1C4380CF0D2F8CDE921
:10096000064674490920089505940023AFF21F62DA
:100970008DE803016F48CDE903746FA1C4380CF012
:10098000C0F870A011F032FA7BA011F02FFA7AA013
:1009900011F02CFACDE9064684490D2008950594FE
:1009A0000023AFF227728DE803018048CDE903747C
:1009B0007FA1C4380CF0A5F809A980480CF09BFE73
:1009C0000EF098F899F80010491E11F0FF0189F80F
:1009D000001009D17A49098831B10EF08FF809F079
:1009E00037FD0BB0BDE8F08F0EF088F8F9E78AB05C
:1009F00005F020FD4FF4A06005F036FF01214020F6
:100A000006F0FEFB4FF4E13005F08CFD00F04CFEEB
:100A100018206CA1CDE900010346D22228211E2016
:100A200003F099FF05F060FC002005F04DFE4FF447
:100A30007A7005F044FD0FF0EBF96748002505706A
:100A400009A809F01EF80EF055F8644C2178491CED
:100A500021700EF053F809A9032005950695CDE9FC
:100A60000701564B80210C22C433CDE90003CDE9A8
:100A7000022104950023AFF25B4259A14F480CF0CC
:100A800040F80EF037F82178491E11F0FF0121706F
:100A900007D14B49098821B10EF030F809F0D8FC94
:100AA00001E00EF02BF809A809F017FA4FA011F099
:100AB0009DF9FEE72072756E6E696E67204C4344A7
:100AC0005F496E697439343836C9CF2121204755C2
:100AD000495F496E69742076616C75653A256420BA
:100AE0000000000028290020456D77696E64697355
:100AF000706C6179207461736B0000001812002023
:100B0000535953207461736B00000000DC1A0020FD
:100B100073656E64207461736B000000A01D00207B
:100B200064260020B04C002044533133303220740E
:100B300061736B00EC4900204C45443020746173B4
:100B40006B0000000D2068657265204C4544305FE5
:100B50006372656174652D2D2D2D2D2D2D2D2D2D5F
:100B60002D2D2D2D2D2D2D2D2D2D2D2D2D2D2D6D75
:100B700061696E2E630D0A000D202D2D2D2D2D2D5A
:100B80002D2D2D2D2D2D2D2D2D2D2D2D2D2D2D2D95
:100B90002D2D2D2D2D2D2D2D2D2D2D2D2D2D2D2D85
:100BA0002D2D2D2D2D2D0D0A00000000744F00203D
:100BB0004D3235503830207461736B00900E002038
:100BC000B800002053544D33324631303356475429
:100BD00036205E5F5E00000072010020F4000020FD
:100BE0007374617274207461736B00002072756E8F
:100BF0006E696E67206F73737461727421212000B7
:100C00007047FEE7FEE7FEE7FEE77047704700002B
:100C10000CB500224C4800920192016841F48031E9
:100C200001604FF4A063016801F400310191009963
:100C3000491C0091019911B900999942F3D10168B9
:100C4000890333D50121019140490A6842F010021D
:100C50000A600A6822F003020A600A6842F002028F
:100C60000A604168416041684160416841F48061C7
:100C70004160416821F47C114160416841F4E81110
:100C80004160016841F08071016001688901FCD513
:100C9000416821F003014160416841F00201416077
:100CA0004168C1F381010229FAD10CBD01920CBD4A
:100CB000254810B5016841F0010101604168244AEE
:100CC000114041600168234A11400160016821F42C
:100CD00080210160416821F4FE0141604FF41F0151
:100CE0008160FFF795FF1C494FF00060086010BD60
:100CF000154A10B55068194B10F00C01184803D074
:100D0000042901D0082901D0036012E0516853681A
:100D100001F470114FF0020413F4803F04EB914191
:100D200002D053689B0301D50E4B00E00B4B594397
:100D3000016051680A4AC1F30311121D515C026837
:100D4000CA40026010BD00000010024000200240B6
:100D50000000FFF8FFFFF6FE08ED00E000127A0049
:100D60000C00002000093D00FE49088070474FF04C
:100D7000C2410880704708B54FF0C2400088ADF806
:100D80000000BDF8000008BDF64A1080901C0180EC
:100D90007047F44910B50880052005F071FBBDE8E7
:100DA0001040E8E7F048EF490089088070474FF0AD
:100DB000C24108807047C0F34511C20AC00200EB6F
:100DC0004110104480B27047401EC0B2FCD2704740
:100DD0002DE9F04FE44F0B463A46BD880C0A918945
:100DE000DFF880B35289A5F513464FEA102C4FF077
:100DF000C24A413E1DD0A5F5A646103E19D03E463A
:100E0000BE4696F806903688A5F5D047A6EB0008B2
:100E1000A8F10108043F17D0A5F5C857633F28D0B3
:100E2000A5F5AA477646103F51D0B9F1010F63D01E
:100E300064E0ABF800205246AAF800C0C0B2AAF89D
:100E40000000ABF800100FE0B9F1010F01D11FFA5B
:100E500088F0ABF80020050A5246AAF80050C0B24C
:100E6000AAF80000ABF800101480D8B21080BDE8DA
:100E7000F08FB9F1000F1BD0ABF800205246AAF852
:100E800000C0C0B2AAF80000761E300AAAF800001E
:100E9000F0B21080ABF8001011461480D8B2108068
:100EA000BEF80200401E020A0A80C0B20880DEE7D7
:100EB0001FFA88F0ABF8002000265246AAF800601E
:100EC000AAF80060060AAAF80060C0B2E1E7ABF831
:100ED0000020AAF800C0521CABF80020C0B2AAF84B
:100EE0000000ABF80010AAF80040491CABF8001055
:100EF000D8B2AAF80000BAE71FFA88F001461046F7
:100F0000FFF742FFB089BDE8F04F19463CE7F0B566
:100F1000954E002425463288824202D972888A4240
:100F200001D80020F0BDFFF753FFB08849F24137E8
:100F30008C4B41F6631C45F2103145F21052B84219
:100F400008D0A0F5D04EBEF1040E03D0884201D0E7
:100F5000604502D14FF02E0E06E0904202D14FF4D0
:100F6000385E01E04FF0220EA3F800E0A0F5134335
:100F7000203B03D10220401EC0B2FCD2FFF7FBFE93
:100F8000B3886345CED00220401EC0B2FCD2FFF72A
:100F9000F2FE8446B088B84203D0884201D0904225
:100FA0000CD10220401EC0B2FCD2FFF7E4FE054681
:100FB0000CF0FF004FF6FF7303EA0024B088A0F5A1
:100FC0001343253B1CD0A0F58A43353B18D01B1D8D
:100FD00016D0A0F53543053B12D0B3F580530FD0A2
:100FE000B84203D0884201D090420BD14FEADC20B6
:100FF0004FEAC020A10A40EA411040EAD520F0BDE6
:101000006046F0BDBDE8F0406046D4E6564855491C
:101010008088A0F51342413A13D0A0F5D042043A9B
:101020000FD0A0F5A642103A0BD0A0F5C852633AF3
:1010300007D0A0F5AA42103A05D040F2731107205C
:10104000A2E6292001E04FF424500880704746486A
:1010500044498088A0F51342413A12D0A0F5D0420D
:10106000043A0ED0A0F5A642103A0AD0A0F5C85214
:10107000633A06D0A0F5AA42103A04D00021072016
:1010800082E6282001E04FF4205008807047F0B538
:10109000354D00232946AA79898846F6040741F68A
:1010A0006316012A01D02AB11DE0B9421BD0B1421A
:1010B00002D118E0B14216D1082814D2DFE800F0BE
:1010C0000406080A0C0E101206200CE007200AE0A5
:1010D000042008E0052006E0012004E0002002E0F2
:1010E000032000E00220A1F5134C45F2103245F236
:1010F0001054BCF1410C07D0B94205D0914203D045
:10110000A14201D0B1427AD1082812D2DFE800F022
:10111000110406080A0C0E1080230AE0402308E0A0
:10112000C02306E0202304E0602302E0A02300E0C7
:10113000E023A14202D14FF4585000E03620914202
:1011400005D0A14203D0B14201D043F00803B94217
:1011500001D143F002031946FFF716FEAA88B242F6
:101160000FD003E0FEFFFF6074510020980628882E
:10117000698802D5884202D303E0884201D92980D8
:101180006880FE48811CA2426A89028021D1002326
:101190000B80531C038000230B80931C03802B883F
:1011A0005B1E1C0A0C80D21C0280DAB20A80AA895B
:1011B000028000230B80531C038000230B80931CB0
:1011C00003806B885B1E1C0A0C80D21C0280D8B284
:1011D00012E000220A800A802A88521E130A0B801D
:1011E000D2B20A80AA89028000200880088068881C
:1011F000401E020A0A80C0B20880F0BDFFE708283E
:1012000012D2DFE800F0040608110A0C0E10302399
:101210000AE0102308E0202306E0382304E0282316
:1012200002E0182300E00823BDE8F040032043F467
:101230008051A9E500B5FFF7CBFDFFF7B3FDD0481E
:101240004FF0C2410088088000BD2DE9F04FDFF863
:101250003483934642460B46B8F804500C0A9189F1
:10126000DFF818A3060A5289A5F513474FF0C249C3
:10127000413F18D0A5F5A647103F14D0B7F5007729
:101280001CD04746A5F5C85CBE793F883F1A7F1E33
:10129000BCF1630C27D0A5F5D04CBCF1040C3AD0BE
:1012A000012E4AD04AE0AAF800204A46A9F8006078
:1012B000C0B2A9F80000AAF800103AE0AAF800208D
:1012C000A9F80060521CAAF80020C0B2A9F80000DA
:1012D000AAF80010A9F80040491CAAF80010D8B2DA
:1012E000A9F8000033E006B9B8B2AAF80020050A50
:1012F0004A46A9F80050C7B2A9F80070A9F80050F2
:10130000C0B2A9F80000AAF80010A9F80040D8B2AD
:10131000A9F800000DE0012E00D1B8B2AAF8002013
:10132000050A4A46A9F80050C0B2A9F80000AAF878
:1013300000101480D8B2108009E0B8B201461046FF
:10134000FFF722FDB8F80C001946FFF71DFDB8F8AD
:101350000810AAF80010A9F800B088E5874A10B56F
:10136000BE211180941C0521218025F059FB4FF0EE
:101370006632854B25F0A4FB25F00EFB2080012072
:101380002080FF20208000202080208010BD2DE9BB
:10139000F04F7C492A232B24898845F2105A4FF4B8
:1013A000305B4FF4285E4FF448754FF0F00C49F273
:1013B00041394FF4A07745F210364FF4F07280B106
:1013C00070484FF00108494580F806800780A0F872
:1013D00002C001D0B1423ED12C25058143818481D8
:1013E00057E068484FF00008494580F80680A0F8AB
:1013F00000C0478006D0A1F5D04CBCF1040C01D050
:10140000B1420CD12C2505814381A1F5D0438481C3
:10141000043B01D0B14244D10780428041E05145B4
:1014200007D1A0F808B0A0F80AE04FF42C51818150
:101430000EE0A1F5C856633E06D02221018120218D
:101440004181212181812CE02C21018144818381F2
:101450000280458025E0A1F5D04CBCF1040C09D0F8
:1014600051450BD1A0F808B0A0F80AE04FF42C5376
:10147000838120E02C250581448109E0A1F5C85C29
:10148000BCF1630C11D0222303812123438120234B
:101490008381A1F5D043043B01D0B14201D1028048
:1014A0004780BDE8F04F0020F1E54FF02C0CA0F88C
:1014B00008C04381848105804280EAE72DE9FC4F22
:1014C000044691464844401E86B2C818401E83B266
:1014D000009004EB0900401EC0F3072EDFF8A4C003
:1014E00000980D46C0F3072B6046BCF804204FEA75
:1014F000112881894089A2F513474FEA142A413FF8
:1015000010D0A2F5A647103F0CD0A2F5D047043F5B
:1015100008D09CF8067041F6631C0197012F13D187
:10152000624511D1154F3880B81CA0F800A0E2B276
:101530000280A0F800E0F2B202803980A0F80080BA
:10154000E9B20180594626E00E4F62453F8827D117
:10155000A7EB0902121B094C009B92B29BB22080A0
:10156000160AA01C0680D6B206804A44521E160AED
:101570000680D2B20280218008E00000FEFFFF60FA
:10158000200000207451002066660440A0F800800E
:10159000E9B20180190A0180D9B20180BDE8FC8F4F
:1015A000A2F5A04CBCF5A26C1FD0019801283FD039
:1015B000B44621462E4650204FF051094FF05208B4
:1015C0005327FFF7E1FB61464846FFF7DDFB314655
:1015D0004046FFF7D9FB19463846FFF7D5FB2946A9
:1015E0002046BDE8FC4FFFF7F3BBFE4A1080971C76
:1015F000A7F800A000F1010CA2F800C0E4B23C8002
:10160000841C1480A7F800E0C01C1080F0B2388061
:101610001180A7F80080481C1080E8B23880881C30
:101620001080A7F800B0C91C1180D8B23880B5E787
:10163000B81B401E86B2381B9C46401E294683B20A
:10164000B9E72DE9F043E84F0646002438887D8845
:101650004543B888A0F5D041043902D1B8790128B2
:1016600008D000210846FFF7B3FBFFF79BFB4FF0C4
:10167000C24015E00020B8714FF02A09A7F80A907F
:101680004FF02B08A7F80C800146FFF7A1FB0120C3
:10169000B871A7F80A80A7F80C90E6E70680641CEA
:1016A000AC42FBD3BDE8F0832DE9F04F01210E02DF
:1016B0009DB0304605F0A4FD0121702005F0A9FD84
:1016C000F000ADF8000010208DF8030003208DF825
:1016D00002006946C54805F0B4FBF000ADF8000013
:1016E00010208DF803000320C14C8DF802006946DC
:1016F000204605F0A6FB1020ADF8000018208DF85C
:10170000030003208DF802006946BA4805F099FBF2
:101710002020ADF8000018208DF8030003208DF87C
:1017200002006946B34805F08CFB0425ADF8005073
:1017300018208DF8030003208DF802006946AE489A
:1017400005F07FFB8020ADF8000018208DF8030025
:1017500003208DF802006946A64805F072FB4CF2A2
:101760000370ADF8000018208DF8030003208DF8F9
:10177000020069469F4805F064FB4FF68070ADF8A3
:10178000000018208DF8030003208DF80200694640
:10179000994805F056FB012015900020CDE916056B
:1017A0001A90189019901B9008210690CDE9070116
:1017B0001021CDE909100C900B9009020D90CDE994
:1017C0000E0110901190129015A81390149006A875
:1017D00005F0D6F80121002005F007FAE1142046B3
:1017E00005F09BFB322004F06AFEE114204605F070
:1017F00092FB322004F063FE0020FFF7CAFA7A4D14
:10180000784C49F24139A88046F6040A45F2103B6B
:1018100045F210574FF6FF78FF2804D3404502D019
:10182000B0F5134F70D1D3202080FFF7A4FAA88021
:10183000FFF7A1FAA880FFF79EFA08EA00204146C8
:10184000A880FFF798FAAA881043A88048455BD083
:10185000BF202080FFF78FFAA880FFF78CFAA880BE
:10186000FFF789FAA880FFF786FA01EA0020A8802E
:10187000FFF781FAAA881043A880504544D0D420AD
:101880002080FFF778FAA880FFF775FAA880FFF7A5
:1018900072FA01EA0020A880FFF76DFAAA881043C7
:1018A000A880584530D04FF45A402080FFF763FAA3
:1018B000A8804FF45B402080FFF75DFA01EA00202A
:1018C000A8804FF45C402080FFF755FAAA881043A7
:1018D000A880B0F5004F7DD0B84215D0A12020805F
:1018E000FFF749FAA880FFF746FA01EA0020A8802E
:1018F000FFF741FAA9880843A0F5AE41A8806139F5
:1019000002D141F66310A880A9883CA010F06EFABD
:10191000A8884FF0C245484578D1CF2020800020CC
:101920002880C120288030202880ED20208064205D
:101930002880032028801220288081202880E82009
:10194000208085202880102028807A202880CB20A5
:101950002080392028802C202880002028803420D6
:10196000288002202880F720208020202880EA205C
:101970002080002028802880C02020801B202880F4
:10198000C120208001202880C52020803020288090
:101990002880C7202080B72028803620208048203B
:1019A00028803A20208055202880B12020800020E7
:1019B00028801A202880B62020800A202880A22093
:1019C0002880F220208000202880262020800120EE
:1019D000288000E065E0E02020800F2028802A2079
:1019E000288014E0FEFFFF607451002000080140D1
:1019F000001001400014014000180140204C4344F5
:101A00002049443A25780D0A000000004BE02820C8
:101A10002880082028800E20288008202880542034
:101A20002880A9202880432028800A2028800F2091
:101A3000288000202880288028802880E12020809D
:101A40000020288015202880172028800720288043
:101A500011202880062028802B20288056202880CE
:101A60003C20288005202880102028800F202880F6
:101A70003F20288028800F2028802B2020800020D5
:101A800028802880012028803F2028802A2020804C
:101A90000020288028802880EF20288011202080A6
:101AA0006EE0AF8030E7504571D1112020801420C6
:101AB00004F005FDD02020800720288042202880C7
:101AC0001D202880D1202080002028801A202880F6
:101AD00009202880D22020800120288022202880F0
:101AE000C0202080102028803B20288000202880D3
:101AF0000220288011202880C520208003202880F3
:101B0000C8202080002028802520288021202880AF
:101B100005202880002028800A2028806520288031
:101B20002520288077202880502028800F2028809A
:101B300000202880F820208001202880FE2020809E
:101B4000002028800220288020202080362020802D
:101B5000082028803A202080552028802B202080B3
:101B6000002028802880012028803F2028802A20EB
:101B7000208000202880288001202880DF202880E5
:101B8000782004F09CFC292001F02EBCFFE758458A
:101B90007ED1ED20208001202880FE202880EE20AC
:101BA0002080DE20288021202880F1202080012034
:101BB0002880DF20208010202880C42020808F20D3
:101BC0002880C620208000202880E22028802880CD
:101BD0002880BF202080AA202880B02020800D20CF
:101BE0002880002028800D202880002028801120B7
:101BF000288000202880192028800020288021208B
:101C00002880002028802D202880002028803D204A
:101C10002880002028805D202880002028805D20EA
:101C2000288000202880B12020808020288000206B
:101C300028808B2028800020288096202880002063
:101C40002880B22020800020288028800220288040
:101C5000002028800320288000202880B3202080B6
:101C600000202880288028802880288028802880BC
:101C70002880288028802880288028802880288024
:101C8000288028802880288028802880288000E0DC
:101C9000FEE328802880B42020808B20288000202C
:101CA00028809620288000202880A12028800020DD
:101CB0002880B52020800220288000202880032052
:101CC0002880002028800420288000202880B6203A
:101CD0002080002028802880B720208000202880B5
:101CE00028803F202880002028805E202880002037
:101CF000288064202880002028808C2028800020D4
:101D00002880AC20288000202880DC20288000202B
:101D100028807020288000202880902028800020A3
:101D20002880EB20288000202880DC2028800020CC
:101D30002880B820208000202880288028802880C3
:101D40002880288028802880BA202080242028808D
:101D50000020288028802880C12020802020288002
:101D6000002028805420288000202880FF20288000
:101D700000202880C22020800A202880002028807F
:101D80000420288000202880C32020803C20288038
:101D9000002028803A2028800020288039202880B0
:101DA0000020288037202880002028803C202880A0
:101DB000002028803620288000202880322028809B
:101DC000002028802F202880002028802C20288098
:101DD0000020288029202880002028802620288094
:101DE000002028802420288000202880242028808B
:101DF0000020288023202880002028803C20288064
:101E0000002028803620288000202880322028804A
:101E1000002028802F202880002028802C20288047
:101E20000020288029202880002028802620288043
:101E3000002028802420288000202880242028803A
:101E4000002028802320288000202880C420208093
:101E500062202880002028800520288000202880FB
:101E60008420288000202880F020288000202880DE
:101E70001820288000202880A42028800020288086
:101E800018202880002028805020288000202880CA
:101E90000C202880002028801720288000202880FF
:101EA0009520288000202880F3202880002028808A
:101EB000E620288000202880C5202080322028802D
:101EC0000020288044202880002028806520288049
:101ED00000202880762028800020288088202880E4
:101EE00000202880C62020802020288000202880F4
:101EF00017202880002028800120288000202880AA
:101F0000C720208000202880288028802880C820A2
:101F1000208000202880288028802880C9202080D8
:101F200000202880288028802880288028802880F9
:101F30002880288028802880288028802880288061
:101F40002880E020208016202880002028801C2067
:101F5000288000202880212028800020288036200A
:101F600028800020288046202880002028805220B9
:101F700028800020288064202880002028807A2063
:101F80002880002028808B2028800020288099200D
:101F9000288000202880A820288000202880B920C0
:101FA000288000202880C420288000202880CA2083
:101FB000288000202880D220288000202880D92056
:101FC000288000202880E020288000202880F3201E
:101FD000288000202880E1202080162028800020F2
:101FE00028801C2028800020288022202880002093
:101FF0002880362028800020288045202880002046
:1020000028805220288000202880642028800020FA
:1020100028807A202880002028808B20288000209B
:1020200028809920288000202880A820288000204F
:102030002880B920288000202880C4202880002003
:102040002880CA20288000202880D22028800020D4
:102050002880D820288000202880E02028800020A8
:102060002880F320288000202880E220208005207E
:102070002880002028800B202880002028801B201A
:1020800028800020288034202880002028804420B8
:102090002880002028804F20288000202880612070
:1020A000288000202880792028800020288088200F
:1020B0002880002028809720288000202880A620C3
:1020C000288000202880B720288000202880C22077
:1020D000288000202880C720288000202880D12048
:1020E000288000202880D620288000202880DD201D
:1020F000288000202880F320288000202880E320EA
:10210000208005202880002028800A2028800020A8
:1021100028801C2028800020288033202880002050
:1021200028804420288000202880502028800020FB
:1021300028806220288000202880782028800020A5
:102140002880882028800020288097202880002050
:102150002880A620288000202880B7202880002002
:102160002880C220288000202880C72028800020C6
:102170002880D120288000202880D5202880002099
:102180002880DD20288000202880F320288000205F
:102190002880E42020800120288000202880012041
:1021A00028800020288002202880002028802A20E3
:1021B0002880002028803C202880002028804B2078
:1021C0002880002028805D2028800020288074201E
:1021D00028800020288084202880002028809320C8
:1021E000288000202880A220288000202880B3207A
:1021F000288000202880BE20288000202880C4203D
:10220000288000202880CD20288000202880D3200E
:10221000288000202880DD20288000202880F320CE
:10222000288000202880E520208000202880288029
:1022300028802880022028800020288029202880CB
:10224000002028803C202880002028804B202880E7
:10225000002028805D20288000202880742028808D
:102260000020288084202880002028809320288037
:1022700000202880A220288000202880B3202880E9
:1022800000202880BE20288000202880C4202880AC
:1022900000202880CD20288000202880D32028807E
:1022A00000202880DC20288000202880F32028803F
:1022B00000202880E620208011202880002028800F
:1022C0003420288000202880562028800020288064
:1022D00076202880002028807720288000202880F1
:1022E00066202880002028808820288000202880E0
:1022F0009920288000202880BB202880002028806A
:1023000099202880002028806620288000202880AE
:1023100055202880002028805520288000202880F3
:102320004520288000202880432028800020288005
:102330004420288000202880E72020803220288028
:1023400000202880552028800020288076202880A2
:102350000020288066202880002028806720288090
:10236000002028806720288000202880872028805F
:10237000002028809920288000202880BB202880E9
:10238000002028809920288000202880772028801D
:102390000020288044202880002028805620288083
:1023A00000202880232028800020288033202880B7
:1023B000002028804520288000202880E8202080D8
:1023C00000202880288099202880002028808720CD
:1023D00028800020288088202880002028807720DE
:1023E00028800020288066202880002028808820DF
:1023F000288000202880AA20288000202880BB2058
:1024000028800020288099202880002028806620AD
:1024100028800020288055202880002028805520F2
:102420002880002028804420288000202880442004
:102430002880002028805520288000202880E9203E
:102440002080AA20288000202880288028802080C2
:10245000AA202880CF202080002028802880288063
:10246000288028802880288028802880288028802C
:10247000288028802880288028802880F0202080BC
:10248000002028805020288000202880288000E01C
:102490002BE02880F320208000202880F920208055
:1024A00006202880102028802920288000202880CD
:1024B0003A2020805520288011202080642003F0BD
:1024C000FEFF2920208035202080002028805120F8
:1024D0002080FF202880532020802C202880552019
:1024E0002080822028802C20FDE3B8427ED14FF44A
:1024F000704355211846FEF747FC4FF20105AA210B
:102500002846FEF741FC6E1C52213046FEF73CFC8B
:10251000AF1C08213846FEF737FC4FF2040C0121AE
:102520006046FEF731FC0D214FF43040FEF72CFCE5
:102530000D214BF20100FEF727FC0D214BF20200AA
:10254000FEF722FC4FF4364934214846FEF71CFCC6
:1025500034214BF20160FEF717FC34214BF202608C
:10256000FEF712FC4FF4314A0D215046FEF70CFCE9
:102570004BF2011B0D215846FEF706FC0D214BF2D4
:102580000210FEF701FC34214FF43740FEF7FCFB4C
:1025900034214BF20170FEF7F7FB34214BF202704D
:1025A000FEF7F2FB00214FF43240FEF7EDFB002175
:1025B0004BF20120FEF7E8FB00214BF20220FEF770
:1025C000E3FB24214FF43840FEF7DEFB24214BF6D9
:1025D0000100FEF7D9FB24214BF60200FEF7D4FBE5
:1025E00001214FF43F40FEF7CFFB00E0FEE30F2157
:1025F0004FF43340FEF7C8FB0F214BF20130FEF7DA
:10260000C3FB0F214BF20230FEF7BEFB34214FF427
:102610003940FEF7B9FB34214BF60110FEF7B4FB4D
:1026200034214BF60210FEF7AFFB08214FF4354082
:10263000FEF7AAFB08214BF20150FEF7A5FB08218B
:102640004BF20250FEF7A0FB03214FF44240FEF78D
:102650009BFB24214FF43A40FEF796FB24214BF6D6
:102660000120FEF791FB24214BF60220FEF78CFBA4
:1026700000214FF43C40FEF787FB78214BF60140E8
:10268000FEF782FB00214BF60240FEF77DFB0021A6
:102690004FF43D40FEF778FB78214BF60150FEF7F2
:1026A00073FB00214BF60250FEF76EFB00214FF446
:1026B0003E40FEF769FB64214BF60160FEF764FBC8
:1026C00000214FF45140FEF75FFB33214DF2011022
:1026D000FEF75AFB00214DF20210FEF755FB3421A4
:1026E0004DF20310FEF750FB00214DF20410FEF7EF
:1026F0004BFB3A214DF20510FEF746FB00214DF24F
:102700000610FEF741FB4A214DF20710FEF73CFB95
:1027100000214DF20810FEF737FB5C214DF2091045
:10272000FEF732FB00214DF20A10FEF72DFB81214E
:102730004DF20B10FEF728FB00214DF20C10FEF7B6
:1027400023FBA6214DF20D10FEF71EFB00214DF2DA
:102750000E10FEF719FBE5214DF20F10FEF714FBEA
:1027600001214DF21010FEF70FFB13214DF2111055
:10277000FEF70AFB01214DF21210FEF705FB542172
:102780004DF21310FEF700FB01214DF21410FEF77D
:10279000FBFA82214DF21510FEF7F6FA01214DF2F7
:1027A0001610FEF7F1FACA214DF21710FEF7ECFAF7
:1027B00002214DF21810FEF7E7FA00214DF2191030
:1027C000FEF7E2FA02214DF21A10FEF7DDFA0121BE
:1027D0004DF21B10FEF7D8FA02214DF21C10FEF745
:1027E000D3FA34214DF21D10FEF7CEFA02214DF23C
:1027F0001E10FEF7C9FA67214DF21F10FEF7C4FA4A
:1028000002214DF22010FEF7BFFA84214DF2211073
:10281000FEF7BAFA02214DF22210FEF7B5FAA42112
:102820004DF22310FEF7B0FA02214DF22410FEF70C
:10283000ABFAB7214DF22510FEF7A6FA02214DF2B0
:102840002610FEF7A1FACF214DF22710FEF79CFAD1
:1028500002214DF22810FEF797FADE214DF22910E1
:10286000FEF792FA02214DF22A10FEF78DFAF221BC
:102870004DF22B10FEF788FA02214DF22C10FEF7D4
:1028800083FAFE214DF22D10FEF77EFA03214DF260
:102890002E10FEF779FA10214DF22F10FEF774FA80
:1028A00003214DF23010FEF76FFA33214DF2311053
:1028B000FEF76AFA03214DF23210FEF765FA6D2138
:1028C0004DF23310FEF760FA00214FF45240FEF74C
:1028D0005BFA33214DF20120FEF756FA00214DF24A
:1028E0000220FEF751FA34214DF20320FEF74CFA94
:1028F00000214DF20420FEF747FA3A214DF205205F
:10290000FEF742FA00214DF20620FEF73DFA4A2179
:102910004DF20720FEF738FA00214DF20820FEF7AD
:1029200033FA5C214DF20920FEF72EFA00214DF218
:102930000A20FEF729FA81214DF20B20FEF724FA36
:1029400000214DF20C20FEF71FFAA6214DF20D20BA
:10295000FEF71AFA00214DF20E20FEF715FAE521D6
:102960004DF20F20FEF710FA01214DF21020FEF774
:102970000BFA13214DF21120FEF706FA01214DF258
:102980001220FEF701FA54214DF21320FEF7FCF954
:1029900001214DF21420FEF7F7F982214DF21520A6
:1029A000FEF7F2F901214DF21620FEF7EDF9CA21EA
:1029B0004DF21720FEF7E8F902214DF21820FEF73C
:1029C000E3F900214DF21920FEF7DEF902214DF264
:1029D0001A20FEF7D9F901214DF21B20FEF7D4F998
:1029E00002214DF21C20FEF7CFF934214DF21D20BB
:1029F000FEF7CAF902214DF21E20FEF7C5F9672144
:102A00004DF21F20FEF7C0F902214DF22020FEF703
:102A1000BBF984214DF22120FEF7B6F902214DF2D7
:102A20002220FEF7B1F9A4214DF22320FEF7ACF9E4
:102A300002214DF22420FEF7A7F9B7214DF22520FF
:102A4000FEF7A2F902214DF22620FEF79DF9CF21D3
:102A50004DF22720FEF798F902214DF22820FEF7CB
:102A600093F9DE214DF22920FEF78EF902214DF275
:102A70002A20FEF789F9F2214DF22B20FEF784F986
:102A800002214DF22C20FEF77FF9FE214DF22D2080
:102A9000FEF77AF903214DF22E20FEF775F9102189
:102AA0004DF22F20FEF770F903214DF23020FEF792
:102AB0006BF933214DF23120FEF766F903214DF217
:102AC0003220FEF761F96D214DF23320FEF75CF9FB
:102AD00000214FF45340FEF757F933214DF20130F6
:102AE000FEF752F900214DF20230FEF74DF9342184
:102AF0004DF20330FEF748F900214DF20430FEF7A5
:102B000043F93A214DF20530FEF73EF900214DF22E
:102B10000630FEF739F94A214DF20730FEF734F955
:102B200000214DF20830FEF72FF95C214DF20930FB
:102B3000FEF72AF900214DF20A30FEF725F981212E
:102B40004DF20B30FEF720F900214DF20C30FEF76C
:102B50001BF9A6214DF20D30FEF716F900214DF2BA
:102B60000E30FEF711F9E5214DF20F30FEF70CF9AA
:102B700001214DF21030FEF707F913214DF211300B
:102B8000FEF702F901214DF21230FEF7FDF8542153
:102B90004DF21330FEF7F8F801214DF21430FEF734
:102BA000F3F882214DF21530FEF7EEF801214DF2D7
:102BB0001630FEF7E9F8CA214DF21730FEF7E4F8B7
:102BC00002214DF21830FEF7DFF800214DF21930E6
:102BD000FEF7DAF802214DF21A30FEF7D5F801219E
:102BE0004DF21B30FEF7D0F802214DF21C30FEF7FB
:102BF000CBF834214DF21D30FEF7C6F802214DF21C
:102C00001E30FEF7C1F867214DF21F30FEF7BCF809
:102C100002214DF22030FEF7B7F884214DF2213029
:102C2000FEF7B2F802214DF22230FEF7ADF8A421F2
:102C30004DF22330FEF7A8F802214DF22430FEF7C2
:102C4000A3F8B7214DF22530FEF79EF802214DF290
:102C50002630FEF799F8CF214DF22730FEF794F891
:102C600002214DF22830FEF78FF8DE214DF2293097
:102C7000FEF78AF802214DF22A30FEF785F8F2219C
:102C80004DF22B30FEF780F802214DF22C30FEF78A
:102C90007BF8FE214DF22D30FEF776F803214DF240
:102CA0002E30FEF771F810214DF22F30FEF76CF840
:102CB00003214DF23030FEF767F833214DF2313009
:102CC000FEF762F803214DF23230FEF75DF86D2118
:102CD0004DF23330FEF758F800214FF45440FEF720
:102CE00053F8332100E07FE34DF20140FEF74CF84A
:102CF00000214DF20240FEF747F834214DF2034027
:102D0000FEF742F800214DF20440FEF73DF83A216B
:102D10004DF20540FEF738F800214DF20640FEF76F
:102D200033F84A214DF20740FEF72EF800214DF20C
:102D30000840FEF729F85C214DF20940FEF724F81F
:102D400000214DF20A40FEF71FF881214DF20B40A1
:102D5000FEF71AF800214DF20C40FEF715F8A621F7
:102D60004DF20D40FEF710F800214DF20E40FEF737
:102D70000BF8E5214DF20F40FEF706F801214DF268
:102D80001040FEF701F813214DF21140FDF7FCFF52
:102D900001214DF21240FDF7F7FF54214DF213408F
:102DA000FDF7F2FF01214DF21440FDF7EDFF822106
:102DB0004DF21540FDF7E8FF01214DF21640FDF7F9
:102DC000E3FFCA214DF21740FDF7DEFF02214DF26D
:102DD0001840FDF7D9FF00214DF21940FDF7D4FF4F
:102DE00002214DF21A40FDF7CFFF00E0FEE2012183
:102DF0004DF21B40FDF7C8FF02214DF21C40FDF7CC
:102E0000C3FF34214DF21D40FDF7BEFF02214DF2FC
:102E10001E40FDF7B9FF67214DF21F40FDF7B4FFDB
:102E200002214DF22040FDF7AFFF84214DF22140F9
:102E3000FDF7AAFF02214DF22240FDF7A5FFA421D4
:102E40004DF22340FDF7A0FF02214DF22440FDF793
:102E50009BFFB7214DF22540FDF796FF02214DF271
:102E60002640FDF791FFCF214DF22740FDF78CFF63
:102E700002214DF22840FDF787FFDE214DF2294067
:102E8000FDF782FF02214DF22A40FDF77DFFF2217E
:102E90004DF22B40FDF778FF02214DF22C40FDF75B
:102EA00073FFFE214DF22D40FDF76EFF03214DF221
:102EB0002E40FDF769FF10214DF22F40FDF764FF12
:102EC00003214DF23040FDF75FFF33214DF23140D9
:102ED000FDF75AFF03214DF23240FDF755FF6D21FA
:102EE0004DF23340FDF750FF00214FF45540FDF700
:102EF0004BFF33214DF20150FDF746FF00214DF20B
:102F00000250FDF741FF34214DF20350FDF73CFF25
:102F100000214DF20450FDF737FF3A214DF20550E4
:102F2000FDF732FF00214DF20650FDF72DFF4A213B
:102F30004DF20750FDF728FF00214DF20850FDF734
:102F400023FF5C214DF20950FDF71EFF00214DF2D9
:102F50000A50FDF719FF81214DF20B50FDF714FFC8
:102F600000214DF20C50FDF70FFFA6214DF20D5040
:102F7000FDF70AFF00214DF20E50FDF705FFE52198
:102F80004DF20F50FDF700FF01214DF21050FDF7FB
:102F9000FBFE13214DF21150FDF7F6FE01214DF21B
:102FA0001250FDF7F1FE54214DF21350FDF7ECFEE7
:102FB00001214DF21450FDF7E7FE82214DF215502C
:102FC000FDF7E2FE01214DF21650FDF7DDFECA21AC
:102FD0004DF21750FDF7D8FE02214DF21850FDF7C3
:102FE000D3FE00214DF21950FDF7CEFE02214DF225
:102FF0001A50FDF7C9FE01214DF21B50FDF7C4FE2A
:1030000002214DF21C50FDF7BFFE34214DF21D5040
:10301000FDF7BAFE02214DF21E50FDF7B5FE672105
:103020004DF21F50FDF7B0FE02214DF22050FDF78A
:10303000ABFE84214DF22150FDF7A6FE02214DF298
:103040002250FDF7A1FEA4214DF22350FDF79CFE76
:1030500002214DF22450FDF797FEB7214DF2255085
:10306000FDF792FE02214DF22650FDF78DFECF2195
:103070004DF22750FDF788FE02214DF22850FDF752
:1030800083FEDE214DF22950FDF77EFE02214DF236
:103090002A50FDF779FEF2214DF22B50FDF774FE18
:1030A00002214DF22C50FDF76FFEFE214DF22D5006
:1030B000FDF76AFE03214DF22E50FDF765FE10214B
:1030C0004DF22F50FDF760FE03214DF23050FDF719
:1030D0005BFE33214DF23150FDF756FE03214DF2D8
:1030E0003250FDF751FE6D214DF23350FDF74CFE8D
:1030F00000214FF45640FDF747FE33214DF20160A9
:10310000FDF742FE00214DF20260FDF73DFE342145
:103110004DF20360FDF738FE00214DF20460FDF72B
:1031200033FE3A214DF20560FDF72EFE00214DF2EF
:103130000660FDF729FE4A214DF20760FDF724FEE7
:1031400000214DF20860FDF71FFE5C214DF2096081
:10315000FDF71AFE00214DF20A60FDF715FE8121F0
:103160004DF20B60FDF710FE00214DF20C60FDF7F3
:103170000BFEA6214DF20D60FDF706FE00214DF27B
:103180000E60FDF701FEE5214DF20F60FDF7FCFD3D
:1031900001214DF21060FDF7F7FD13214DF2116092
:1031A000FDF7F2FD01214DF21260FDF7EDFD542116
:1031B0004DF21360FDF7E8FD01214DF21460FDF7BB
:1031C000E3FD82214DF21560FDF7DEFD01214DF298
:1031D0001660FDF7D9FDCA214DF21760FDF7D4FD49
:1031E00002214DF21860FDF7CFFD00214DF219606C
:1031F000FDF7CAFD02214DF21A60FDF7C5FD012160
:103200004DF21B60FDF7C0FD02214DF21C60FDF781
:10321000BBFD34214DF21D60FDF7B6FD02214DF2DC
:103220001E60FDF7B1FD67214DF21F60FDF7ACFD9B
:1032300002214DF22060FDF7A7FD84214DF22160AF
:10324000FDF7A2FD02214DF22260FDF79DFDA421B4
:103250004DF22360FDF798FD02214DF22460FDF749
:1032600093FDB7214DF22560FDF78EFD02214DF251
:103270002660FDF789FDCF214DF22760FDF784FD23
:1032800002214DF22860FDF77FFDDE214DF229601D
:10329000FDF77AFD02214DF22A60FDF775FDF2215E
:1032A0004DF22B60FDF770FD02214DF22C60FDF711
:1032B0006BFDFE214DF22D60FDF766FD03214DF201
:1032C0002E60FDF761FD10214DF22F60FDF75CFDD2
:1032D00003214DF23060FDF757FD33214DF231608F
:1032E000FDF752FD03214DF23260FDF74DFD6D21DA
:1032F0004DF23360FDF748FD55211846FDF744FDBA
:10330000AA212846FDF740FD52213046FDF73CFD3D
:1033100008213846FDF738FD00216046FDF734FDF1
:10332000CC215046FDF730FD00215846FDF72CFD1D
:1033300005214846FDF728FD70214FF43740FDF781
:1033400023FD70214BF20170FDF71EFD01214FF4AA
:103350003840FDF719FD03214BF60100FDF714FD80
:1033600003214BF60200FDF70FFD03214BF603008E
:10337000FDF70AFD02214FF43C40FDF705FD002159
:103380004BF60140FDF700FD00214BF60240FDF732
:10339000FBFCD0214FF44940FDF7F6FC02214CF62E
:1033A0000110FDF7F1FC50214CF60210FDF7ECFC8A
:1033B00050214CF60310FDF7E7FC50214CF60410A9
:1033C000FDF7E2FC00214FF45450FDF7DDFC5521E0
:1033D0004FF46850FDF7D8FC4FF4885020807820D7
:1033E00003F04EF84FF424502080FDE3A0F5134184
:1033F0004FF4E06940F2022A4FF4274B253924D0DC
:1034000040F20777C91E7CD04FF4887B083179D011
:10341000113978D0A0F5A841083975D0A0F5A85188
:103420004FF4407B053970D0B1F520416ED0B1F535
:1034300080516CD0A0F58A41313969D0091F68D01C
:10344000A0F5C851633965D0CFE747F6F001E52014
:10345000FDF79AFC31460120FDF796FC4946022013
:10346000FDF792FC41F230010320FDF78DFC0021B5
:103470000420FDF789FC51460820FDF785FC00215A
:103480000920FDF781FC00210A20FDF77DFC0021C9
:103490000C20FDF779FC00210D20FDF775FC0021C3
:1034A0000F20FDF771FC00211020FDF76DFC0721B6
:1034B0001120FDF769FC00211220FDF765FC0021B9
:1034C0001320FDF761FC00210720FDF75DFC41F2B0
:1034D00090611020FDF758FC40F227211120FDF7E4
:1034E00053FC9D211220FDF74FFC4FF4C8511320CF
:1034F000FDF74AFC25212920FDF746FC0D212B2054
:1035000009E079E035E1DAE1B0E24CE3FEE3FEE325
:10351000FEE3FEE3FEE3FDF737FC07213020FDF775
:1035200033FC40F203313120FDF72EFC0321322021
:10353000FDF72AFC40F206213520FDF725FC082185
:103540003620FDF721FC40F206413720FDF71CFC38
:103550004FF441713820FDF717FC07213920FDF7A2
:1035600013FC40F202613C20FDF70EFC08213D20D7
:10357000FDF70AFC00215020FDF706FCEF21512049
:10358000FDF702FC00215220FDF7FEFB40F23F1147
:103590005320FDF7F9FB59466020FDF7F5FB0121AB
:1035A0006120FDF7F1FB00216A20FDF7EDFB002112
:1035B0008020FDF7E9FB00218120FDF7E5FB0021DC
:1035C0008220FDF7E1FB00218320FDF7DDFB0021D8
:1035D0008420FDF7D9FB00218520FDF7D5FB1021C4
:1035E0009020FDF7D1FB4FF4C0619220FDF7CCFB9A
:1035F00040F233110720FDE341F28F01EC20FDF78B
:10360000C3FB41F23421EF20FDF7BEFB3146012020
:10361000FDF7BAFB49460220FDF7B6FB41F2300147
:103620000320FDF7B1FB00210420FDF7ADFB51465F
:103630000820FDF7A9FB00210920FDF7A5FB0021CB
:103640000A20FDF7A1FB01210C20FDF79DFB0021C5
:103650000D20FDF799FB00210F20FDF795FB0021C0
:103660001020FDF791FB07211120FDF78DFB0021B4
:103670001220FDF789FB00211320FDF785FB0121B6
:103680000720FDF781FB322002F019FF41F2904143
:103690001020FDF779FB40F227211120FDF774FB84
:1036A000322002F00CFF8A211220FDF76DFB322040
:1036B00002F005FF4FF4D0511320FDF765FB062102
:1036C0002920FDF761FB0D212B20FDF75DFB32204A
:1036D00002F0F5FE00212020FDF756FB00212120FD
:1036E000FDF752FB322002F0EAFE00213020FDF708
:1036F0004BFB40F204613120FDF746FB40F20531FF
:103700003220FDF741FB00213520FDF73DFB40F65F
:1037100009413620FDF738FB4FF401713720FDF7E2
:1037200033FB40F201313820FDF72EFB39463920BA
:10373000FDF72AFB00213C20FDF726FB40F60A217D
:103740003D20FDF721FB322002F0B9FE0021502080
:10375000FDF71AFBEF215120FDF716FB0021522047
:10376000FDF712FB40F23F115320FDF70DFB5946C8
:1037700051E100210846FDF707FB31460120FDF726
:1037800003FB49460220FDF7FFFA41F23001032016
:10379000FDF7FAFA00210420FDF7F6FA5146082059
:1037A000FDF7F2FA00210920FDF7EEFA00210A20C8
:1037B000FDF7EAFA01210C20FDF7E6FA00210D20C1
:1037C000FDF7E2FA00210F20FDF7DEFA322002F0C9
:1037D00076FE40F201110720FDF7D6FA322002F002
:1037E0006EFE4FF486511020FDF7CEFA072111200E
:1037F000FDF7CAFA5B4659461220FDF7C5FA4FF4A9
:1038000030611320FDF7C0FA00212920FDF7BCFA32
:1038100044F210012B20FDF7B7FA00215020FDF7EC
:10382000B3FAEF215120FDF7AFFA00215220FDF746
:10383000ABFA40F23F115320FDF7A6FA4FF41C51AA
:103840006020FDF7A1FA01216120FDF79DFA00211A
:103850006A20FDF799FA00218020FDF795FA0021F2
:103860008120FDF791FA00218220FDF78DFA0021D9
:103870008320FDF789FA00218420FDF785FA0021D5
:103880008520FDF781FA10219020FDF77DFA0021B7
:103890009220FDF779FA01219320FDF775FA194678
:1038A0009520FDF771FA00219720FDF76DFA0021B0
:1038B0009820FDF769FA40F27311072085E341F281
:1038C0001401E720FDF760FA31460120FDF75CFAAC
:1038D0004FF400710220FDF757FA41F2380103203E
:1038E000FDF752FA51460820FDF74EFA0021092053
:1038F000FDF74AFA00210A20FDF746FA00210C20C4
:10390000FDF742FA00210D20FDF73EFA00210F20BD
:10391000FDF73AFA00211020FDF736FA07211120B1
:10392000FDF732FA00211220FDF72EFA00211320B4
:10393000FDF72AFAC82002F0C2FD41F29061102082
:10394000FDF722FA40F227211120FDF71DFA32205F
:1039500002F0B5FD0C211220FDF716FA322002F01C
:10396000AEFD4FF400611320FDF70EFA112129205E
:10397000FDF70AFA0B212B20FDF706FA322002F0A0
:103980009EFD00212020FDF7FFF940F23F1319466C
:103990002120FDF7F9F900213020FDF7F5F94FF46A
:1039A000837421463120FDF7EFF900213220FDF725
:1039B000EBF94FF401713520FDF7E6F941F20A61A8
:1039C0003620FDF7E1F939463720FDF7DDF92146CC
:1039D0003820FDF7D9F939463920FDF7D5F940F2FD
:1039E00002413C20FDF7D0F940F60F413D20FDF7A4
:1039F000CBF900215020FDF7C7F9EF215120FDF749
:103A0000C3F900215220FDF7BFF919465320FDF7F5
:103A1000BBF94FF41C516020FDF7B6F9012161207C
:103A2000FDF7B2F900216A20FDF7AEF900218020F0
:103A3000FDF7AAF900218120FDF7A6F900218220D7
:103A4000FDF7A2F900218320FDF79EF900218420D3
:103A5000FDF79AF900218520FDF796F910219020B5
:103A6000FDF792F94FF4C0619220FDE33146012049
:103A7000FDF78AF949460220FDF786F941F2300147
:103A80000320FDF781F900210420FDF77DF940F2C4
:103A900007210820FDF778F900210920FDF774F9C6
:103AA00000210A20FDF770F900210C20FDF76CF9C8
:103AB00000210D20FDF768F900210F20FDF764F9C2
:103AC000142002F0FCFC41F2B0611020FDF75CF91B
:103AD00001211120FDF758F901211720FDF754F9B4
:103AE0004FF49C711220FDF74FF94FF40061132041
:103AF000FDF74AF909212920FDF746F909212A2075
:103B0000FDF742F90021A420FDF73EF900215020E5
:103B1000FDF73AF9EF215120FDF736F90021522047
:103B2000FDF732F940F23F115320FDF72DF94FF424
:103B30001C516020FDF728F901216120FDF724F9CF
:103B400000216A20FDF720F900218020FDF71CF9F3
:103B500000218120FDF718F900218220FDF714F9DA
:103B600000218320FDF710F900218420FDF70CF9D6
:103B700000218520FDF708F913219020FDF704F9B5
:103B800000219220FDF700F903219320FDF7FCF8B6
:103B900059469520FDF7F8F840F273110720FDF71C
:103BA000F3F8322010E100210720FDF7EDF8322074
:103BB00002F085FC4FF48E711220FDF7E5F801212B
:103BC000A420FDF7E1F80F210820FDF7DDF808211A
:103BD0000A20FDF7D9F808210D20FDF7D5F8394660
:103BE0003020FDF7D1F800E070E307213120FDF728
:103BF000CBF840F203613220FDF7C6F84C46494647
:103C00003320FDF7C1F851463420FDF7BDF80221FD
:103C10003520FDF7B9F841F60F713620FDF7B4F8FD
:103C200039463720FDF7B0F800213820FDF7ACF811
:103C300000213920FDF7A8F839463A20FDF7A4F80D
:103C400000213B20FDF7A0F807213C20FDF79CF860
:103C500000213D20FDF798F8322002F030FC0121D0
:103C60000720FDF791F801211720FDF78DF832208C
:103C700002F025FC4FF4BD511020FDF785F840F20D
:103C800017211120FDF780F84FF48F711220FDF7F6
:103C90007BF84FF470611320FDF776F800212A209D
:103CA000FDF772F80A212920FDF76EF84FF49F7195
:103CB0001220FDF769F800215020FDF765F8EF218B
:103CC0005120FDF761F800215220FDF75DF840F228
:103CD0003F115320FDF758F84FF41C516020FDF7B9
:103CE00053F801216120FDF74FF800216A20FDF70C
:103CF0004BF800218020FDF747F800218120FDF7D7
:103D000043F800218220FDF73FF804E05FE05DE129
:103D100026E2DCE283E300218320FDF735F8002171
:103D20008420FDF731F800218520FDF72DF81321BF
:103D30009020FDF729F859469220FDF725F8052136
:103D40009320FDF721F800219520FDF71DF80021B3
:103D50009720FDF719F800219820FDF715F8314656
:103D60000120FDF711F821460220FDF70DF841F280
:103D700038010320FDF708F800210420FDF704F8BE
:103D800000210C20FDF700F800210F20FCF7FCFFBC
:103D900000212020FCF7F8FF00212120FCF7F4FF90
:103DA00021210720FCF7F0FF142002F088FB61219D
:103DB0000720FCF7E9FF142002F081FB40F27311A9
:103DC0000720FCF7E1FF142002F079FBA1E30021BA
:103DD0000846FCF7D9FF00210846FCF7D5FF002173
:103DE0000846FCF7D1FF00210846FCF7CDFF012172
:103DF000A42000E0E5E0FCF7C7FF142002F05FFB21
:103E00004FF41C5421466020FCF7BEFF5546514636
:103E10000820FCF7B9FF4FF405713020FCF7B4FF20
:103E200043F215713120FCF7AFFF40F204613220FC
:103E3000FCF7AAFF40F616613320FCF7A5FF42F21B
:103E400011213420FCF7A0FF4FF4A8513520FCF7D6
:103E50009BFF48F207513620FCF796FF41F20741DD
:103E60003720FCF791FF41F203413820FCF78CFF2B
:103E700020213920FCF788FF1A219020FCF784FFCD
:103E800000211020FCF780FF07211120FCF77CFFA8
:103E900000211220FCF778FF00211320FCF774FFAB
:103EA000142002F00CFB4FF4E6611020FCF76CFFCD
:103EB00040F237111120FCF767FF142002F0FFFADF
:103EC0004FF4DC711220FCF75FFF142002F0F7FAC8
:103ED0004FF470611320FCF757FF80212A20FCF774
:103EE00053FF48212920FCF74FFF142002F0E7FA86
:103EF00031460120FCF748FF49460220FCF744FF09
:103F000041F238010320FCF73FFF29460820FCF767
:103F10003BFF00210A20FCF737FF00210C20FCF7B3
:103F200033FF00210D20FCF72FFF30210E20FCF77E
:103F30002BFF00215020FCF727FFEF215120FCF739
:103F400023FF00215220FCF71FFF40F23F115320B6
:103F5000FCF71AFF21466020FCF716FF01216120C3
:103F6000FCF712FF00216A20FCF70EFF11219020C0
:103F7000FCF70AFF4FF4C0619220FCF705FF40F206
:103F800002419320FCF700FF02219420FCF7FCFE85
:103F9000142002F094FA01210720FCF7F5FE14200A
:103FA00002F08DFA61210720FCF7EEFE40F273115A
:103FB0000720FCF7E9FE00212020FCF7E5FE0021A8
:103FC0002120FCF7E1FE222100207DE100210846AE
:103FD000FCF7DAFE00210846FCF7D6FE142002F0BA
:103FE0006EFA00210846FCF7CFFE00210846FCF7D8
:103FF000CBFE00210846FCF7C7FE00210846FCF76F
:10400000C3FE0121A420FCF7BFFE142002F057FAE2
:104010004FF41C516020FCF7B7FE40F60601082063
:10402000FCF7B2FE40F2037319463020FCF7ACFEF9
:1040300001213120FCF7A8FE04213220FCF7A4FE68
:104040004FF481713320FCF79FFE5C4659463420C3
:10405000FCF79AFE40F203113520FCF795FE1F2174
:104060003620FCF791FE19463720FCF78DFE012122
:104070003820FCF789FE04213920FCF785FE152144
:104080009020FCF781FE4FF482611020FCF77CFE4B
:1040900040F247211120FCF777FE4FF4DE71122029
:1040A000FCF772FE4FF460611320FCF76DFE782080
:1040B00002F005FA31460120FCF766FE4FF400716C
:1040C0000220FCF761FE41F230010320FCF75CFEA8
:1040D00008210A20FCF758FE00210C20FCF754FEB2
:1040E00020210E20FCF750FE00210F20FCF74CFE93
:1040F00000212020FCF748FE00212120FCF744FE8F
:104100003D212A20FCF740FE142002F0D8F92D2191
:104110002920FCF739FE00215020FCF735FE4DF236
:10412000EF015120FCF730FE00215220FCF72CFE5D
:1041300040F23F115320FCF727FE00216120FCF7DD
:1041400023FE00216A20FCF71FFE21469220FCF787
:104150001BFE05219320FCF717FE3146FFF7ADBB90
:1041600001210020FCF710FE0A2002F0A8F941F21C
:1041700028611020FCF708FE0E211220FCF704FE37
:1041800040F639211320FCF7FFFD0A2002F097F9D1
:1041900040211120FCF7F8FD50211520FCF7F4FD1B
:1041A0000A2002F08CF91E211220FCF7EDFD0A20F6
:1041B00002F085F94FF4B1511020FCF7E5FD42F60D
:1041C00039211320FCF7E0FD0A2002F078F931468E
:1041D0000120FCF7D9FD59460220FCF7D5FD41F23C
:1041E00038010320FCF7D0FD51460820FCF7CCFD38
:1041F00008210A20FCF7C8FD00213020FCF7C4FD8F
:1042000040F202413120FCF7BFFD4FF483713220B0
:10421000FCF7BAFD40F203513320FCF7B5FD4FF433
:1042200082713420FCF7B0FD40F201313520FCF7FB
:10423000ABFD39463620FCF7A7FD40F205313720AB
:10424000FCF7A2FD4FF402713820FCF79DFD40F60B
:104250000B713920FCF798FD02214120FCF794FDF9
:104260004FF41C51602000E0D4E0FCF78DFD0121EB
:104270006120FCF789FD4FF404719020FCF784FD68
:104280004FF485719220FCF77FFD04219320FCF709
:104290007BFD3146A020FCF777FD01210720FCF7CC
:1042A00073FD21210720FCF76FFD23210720FCF778
:1042B0006BFD33210720FCF767FD40F23311072027
:1042C000FCF762FD0021A020FCF75EFD21E130211A
:1042D0001520FCF759FD10219A20FCF755FD2021EF
:1042E0001120FCF751FD43F228411020FCF74CFD52
:1042F00002211220FCF748FD41F238011320FCF79F
:1043000043FD282002F0DBF812210846FCF73CFDB3
:10431000282002F0D4F843F220411020FCF734FDAD
:1043200043F238011320FCF72FFD462002F0C7F8B6
:1043300000213020FCF728FD40F202413120FCF73B
:1043400023FD40F207313220FCF71EFD4FF441718E
:104350003320FCF719FD04213420FCF715FD40F251
:1043600001413520FCF710FD39463620FCF70CFDE5
:1043700040F205313720FCF707FD4FF4C2631946C0
:104380003820FCF701FD19463920FCF7FDFC3146C9
:104390000120FCF7F9FC59460220FCF7F5FC41F23C
:1043A00030010320FCF7F0FC40F608010820FCF780
:1043B000EBFC08210A20FCF7E7FC4FF41C516020BD
:1043C000FCF7E2FC01216120FCF7DEFC4FF49F7159
:1043D0009020FCF7D9FC31469220FCF7D5FC314601
:1043E0009320FCF7D1FC4FF44051A020FCF7CCFC0B
:1043F0001021A320FCF7C8FC01210720FCF7C4FC16
:1044000021210720FCF7C0FC23210720FCF7BCFC7E
:1044100033210720FCF7B8FC40F233119EE6E2207E
:1044200020802320288002202880042028806420E7
:1044300002F026F8E0202080012028800A2002F0E7
:104440003EF8E0202080032028800C2002F037F87E
:10445000012020800A2002F032F8E620208003208C
:104460002880FF2028802880B020208020202880DD
:10447000002028800320288040F21F30288001205F
:10448000288040F2DF10288000202880B42020807F
:104490000420288040F21F40288000202880D2205D
:1044A000288000202880288028802880B62020802E
:1044B000022028804FF403702880002028802220CA
:1044C000288009202880002028802880F020208053
:1044D0000320288029202080D020208000202880D0
:1044E000BE20208005202880FE20288001202880F2
:1044F000FF20288000202880B82020800F202880DE
:1045000001202880BA202080012028806420FCF728
:1045100025FF0120FCF73BFFFE490120C1F8AC015B
:104520004046FDF78EF81DB0BDE8F08F2DE9F84349
:10453000F94D1F468046AB88089EA3F5D04004384D
:1045400002D1A879012807D0A2EB0800401C85B24F
:104550000C464FF0C24928E02B880846991A0024DF
:10456000AC713A462A24A3EB08036C812B27491E21
:104570005B1EAF8189B29BB20096FFF7D7FF012087
:10458000A8716F81AC81BDE8F88321464046FCF7F5
:104590001FFCFCF707FC0020494602E00E80401C8F
:1045A00080B2A842FAD3641CA4B2BC42EDD9EAE7B7
:1045B0002DE9F0478246A2EB0A00401C0E4685B268
:1045C000981B401C87B200244FF0C249DDF82080C0
:1045D00014E0301981B25046FCF7FAFBFCF7E2FB1D
:1045E0000020494606E004FB050338F813200A8042
:1045F000401C80B2A842F6D3641CA4B2BC42E8D3EB
:10460000BDE8F0872DE9FE4F0026A2EB00088246A8
:104610005F1A701E35468946B8F1000F02DD4FF073
:10462000010102E003D14FF00001019102E0C8F165
:1046300000080190002F02DD4FF0010002E003D1DD
:104640004FF00000009002E0C7F1000700904046E4
:10465000B84501DD044600E03C46601C4FF0000B0D
:10466000029015E01FFA89F11FFA8AF0FCF7E2FDCB
:1046700046443D44A64202DD0199361B8A44A542C8
:1046800002DD00992D1B89440BF101001FFA80FB0C
:1046900002998B45E6DDBDE8FE8FF0B51C46154658
:1046A0000E4607460B46FFF7ADFF3A462346314616
:1046B0001046FFF7A7FF23462A4619463846FFF75C
:1046C000A1FF2A4623463146BDE8F040104699E74F
:1046D0002DE9FC4F80460024154603200F46A0EB31
:1046E000450649E0781B81B208EB040A01901FFAE5
:1046F0008AF0FCF79FFD381B81B208EB050900909A
:104700001FFA89F0FCF796FD07EB040B1FFA8BF1FB
:104710001FFA89F0FCF78EFD07EB05091FFA89F1F6
:104720001FFA8AF0FCF786FDA8EB040A1FFA89F14C
:104730001FFA8AF0FCF77EFDA8EB05091FFA8BF142
:104740001FFA89F0FCF776FD019881B21FFA8AF012
:10475000FCF770FD009881B21FFA89F0FCF76AFD42
:10476000641C002E03DA06EB8406B61D04E0601B11
:1047700006EB80066D1E0A36AC42B3DDBDE8FC8F49
:104780002DE9F84F82461F460C468B46580700D04D
:10479000012000EBD70079084843203AC0B202F06C
:1047A000FF090026009041E00C2F10D0102F12D0EE
:1047B000182F3ED1594909EBC90001EB80004FF099
:1047C0000008855D28060AD5554802880BE009EBEC
:1047D00049005449F1E7544901EB0910EFE70A9801
:1047E00028B94F48428821465046FCF72EFD6806FE
:1047F000050E4948641CA4B24088A04219D9A4EB14
:104800000B00B84209D10AF101001FFA80FA4248B0
:104810005C46018851450CD906E008F1010000F022
:10482000FF08B8F1080FCDD3761CF6B20098864287
:10483000BAD3BDE8F88F0346012000E05843491E73
:10484000C9B2FBD270472DE9FF4F81B00027DDF8D8
:1048500038B01D46924680463C46B9464FEA5B0654
:1048600027E0281B401EC1B20A20FFF7E4FFBAFB75
:10487000F0F00A21B0FBF1F201FB120027B9691E2A
:104880008C4201DA48B101273030C2B206FB048005
:1048900080B25B46CDF8009006E006FB048080B253
:1048A0005B462022CDF800900299FFF769FF641C57
:1048B000E4B2AC42D5D305B036E62DE9FF4F81B066
:1048C0008046DDF83CA00E984FF000091F46934645
:1048D0004C460AF00105460838E0381B401EC1B2BC
:1048E0000A20FFF7A8FFBBFBF0F00A21B0FBF1F2B2
:1048F00001FB1200B9F1000F05D1791E8C4202DADA
:10490000B0B14FF001093030C2B206FB048080B272
:1049100000950BE00000214274510020CE83020874
:10492000200000206A790208DE7D02080E9B08E064
:104930005FEA0A6006FB04800E9B80B2009508D5F2
:1049400030220299FFF71CFF641CE4B2BC42C4D3BE
:10495000B1E72022F5E72DE9F84F044600F0FF0803
:1049600010190D46DDE90A761FFA80FA58191FFA68
:1049700080F94FF0000B11E0544502D3E81944468A
:1049800085B24D450FD23B4629462046CDF800B0B2
:10499000FFF7F6FE04EB570084B2761C3278A2F1E2
:1049A00020005E28E8D944E77FB50C460546012182
:1049B000022002F037FCADF80040ADF804500024AE
:1049C000354DADF80240ADF806406946284602F084
:1049D00041FE01221146284603F0F9F81D218DF809
:1049E0000C108DF80D4003208DF80E0001208DF87D
:1049F0000F0003A801F03DFF0121284603F0D2F883
:104A00007FBD10B505F0CEF8234C0121204603F000
:104A1000F2FA18B10121204603F0F9FABDE810407E
:104A200005F0CBB87FB50D4604460121102002F0F9
:104A3000F9FBADF804400021ADF80050174CADF87B
:104A40000210ADF806106946204602F003FE01226E
:104A50004121204603F0BBF836208DF80C000121DF
:104A60008DF80D1003228DF80E208DF80F1003A87D
:104A700001F0FFFE0121204603F094F87FBD10B540
:104A8000064C0121204603F0B6FA2046BDE810404E
:104A9000012103F0BCBA00000004004000100040F7
:104AA0004106F848826942F001028261F648426894
:104AB00022F0E062426042680A4342607047F0B50B
:104AC00087B001210D2002F0A4FBF04C002120460C
:104AD00002F042FA01210D03284602F09AFB01215F
:104AE000204602F039FA0121084602F035FA012188
:104AF000284602F08EFB0121202002F08AFB0824C8
:104B0000ADF8004003208DF80200E14E10258DF82D
:104B100003506946304602F094F90121082002F062
:104B200078FBADF80040DB4F18248DF80340694650
:104B3000384602F086F90121082002F06AFBADF840
:104B400000508DF803406946384602F07AF9012199
:104B5000082002F05EFB2020ADF800008DF8034035
:104B60006946384602F06DF93821384602F0D3F92B
:104B70000821304602F0CFF90020ADF804004FF4D0
:104B80008271ADF80610ADF80C006901ADF80E1099
:104B90003821ADF81010ADF80800ADF80A00ADF8F6
:104BA00012000720BC4CADF8140001A9204602F009
:104BB000A3FB0121204602F01BFC07B0F0BDB44A64
:104BC00001284FF00801104601D002F0A6B902F00A
:104BD000A2B970B5B04C05460221204602F074FC23
:104BE0000028F9D02946204602F02AFC012120465F
:104BF00002F06AFC0028F9D02046BDE8704002F0BF
:104C000021BC70B5A24C05460821204602F085F96A
:104C10002846FFF7DEFF2046BDE87040082102F07D
:104C20007AB970B59A4D04460821284602F075F904
:104C3000E0B2FFF7CEFFFF20FFF7CBFF04460821CD
:104C4000284602F068F9204670BD70B5904D0E46BA
:104C500004460821284602F060F9E0B2FFF7B9FFE8
:104C6000F0B2FFF7B6FF2846BDE87040082102F019
:104C700052B910B50520FFF7D4FF20F01C01012028
:104C8000FFF7E3FFBDE810400620BAE710B50520A6
:104C9000FFF7C7FF40F01C010120FFF7D6FFBDE87A
:104CA00010400420ADE710B50520FFF7BAFF00F073
:104CB000010010BD2DE9F041C0F30745C0F3072402
:104CC000C6B2FFF7D6FF724F0821384602F025F929
:104CD000D820FFF77EFF2846FFF77BFF2046FFF72F
:104CE00078FF3046FFF775FF0821384602F013F9C8
:104CF000FFF7D9FF0028FBD1BDE8F041C6E710B5AA
:104D0000FFF7B7FFC720FFF77CFF64A00DF06EF838
:104D1000FFF7C9FF0028FBD1BDE81040B6E72DE939
:104D2000F0418846C0F30745C0F30724C6B2FFF739
:104D3000A0FF574F0821384602F0EFF80220FFF796
:104D400048FF2846FFF745FF2046FFF742FF304661
:104D5000FFF73FFF4046FFF73CFF0821384602F0CF
:104D6000DAF8FFF793FFFFF79EFF0028FBD1BDE8BD
:104D7000F08170B514460D46064607E029783046A6
:104D8000FFF7CDFF641E6D1CA4B2761C002CF5D17C
:104D9000BDE870407AE72DE9F0413D4FC0F307458B
:104DA000C0F30724C6B20821384602F0B6F8032043
:104DB000FFF70FFF2846FFF70CFF2046FFF709FF1C
:104DC0003046FFF706FFFF20FFF703FFC4B20821BC
:104DD000384602F0A0F82046C9E72DE9F047DFF891
:104DE000B0900D46C0F30748C0F30726C7B214467B
:104DF0000821484602F091F80320FFF7EAFE4046FA
:104E0000FFF7E7FE3046FFF7E4FE3846FFF7E1FE26
:104E100006E0FF20FFF7DDFE641E05F8010BA4B2DB
:104E2000002CF6D14846BDE8F047082102F073B8DF
:104E300058B50020FFF7C3FE9F20FFF7CAFE0024ED
:104E40001826FF20FFF7C5FE2855642001F037FB28
:104E5000009604EB84002A5D80000C230321FFF7F9
:104E6000F2FC641CE4B2142CEBD30120FFF7A7FE84
:104E7000002413A0295D0CF0B9FF641CE4B2142CCB
:104E8000F7D358BD0010024000000140000230007E
:104E900000140140000C0140003001400D0A2020A8
:104EA000312D2D2D2D2D2D2D2D2D7370692E63B2AD
:104EB000C1B3FDB9A6C4DCA3A1A3A120200D0A00A3
:104EC0004D49443D20256409000000002DE9F041D2
:104ED000284C0821204602F020F89F20FFF779FE99
:104EE000FF20FFF776FE0746FF20FFF772FE06461B
:104EF000FF20FFF76EFE05460821204602F00BF862
:104F0000380440EA0620284331E71CB5FFF7B1FE1C
:104F10000020FFF754FE052001F0B2FAB920FFF798
:104F200058FE0120FFF74BFE182013A1CDE9000128
:104F30000346D222B4211E20FFF70DFDBDE81C4020
:104F40000A2001F09DBA1CB5FFF793FEAB20FFF7D6
:104F500058FEFFF7A8FE0028FBD1FFF797FE1820A8
:104F60000AA1CDE900010346D222B4211E20FFF799
:104F7000F2FC1CBD001401404D32355038305F4406
:104F80004545505F534C4545502121004D32355029
:104F900038305F52455321210000000070B50E46A5
:104FA000054600F0BDFB04004BD17DB3012D1AD0A6
:104FB000022D45D1052E43D2DFE806F003060C0F83
:104FC000120042F22F0001E042F22D1000F09DFB92
:104FD000044636E042F22B20F8E742F22930F5E7AA
:104FE00042F22A70F2E7052E2AD2DFE806F0030625
:104FF000090C100042F22400E8E742F22610E5E72F
:1050000042F22020E2E742F22230DFE702E042F201
:105010002170DBE7052E13D2DFE806F00306090C4A
:105020000F0042F23200D1E742F23010CEE742F2F6
:105030003620CBE742F23430C8E742F23770C5E79A
:10504000802400F0F2FB204670BD70B50546FF20BD
:10505000002340F231140FE0EA5C504008220606BB
:1050600002D584EA400000E04000521EC0B212F0B7
:10507000FF02F4D15B1CDBB28B42EDD370BD7CB57B
:105080000D4604460021684600F01FFCB8B9002216
:1050900011460DF1010000F018FC80B900222946EC
:1050A00001A800F012FC50B9684602219DF8045096
:1050B000FFF7CBFFA84201D0022000E00020BDF89E
:1050C000001049BA21807CBD2DE9FC411D461746E0
:1050D0008846064600F024FB040032D15FB1012F60
:1050E00006D0022F01D080242BE042F2164004E0CB
:1050F00042F20B4001E04FF4105000F006FB0400B8
:1051000008D01EE000F031FB040008D0384600F063
:105110007EFD01E04FF47A776D1EEDB2F2D20DB153
:1051200014B10EE004240CE0002211466846FFF79B
:10513000A6FF05460022012101A8FFF7A0FF40EAD3
:10514000050400F072FB54B9BDF8000000F0FFFA4E
:105150003060BDF8040000F0EFFAC8F80000204607
:10516000BDE8FC812DE9FC41984615460E460746F0
:1051700000F0D6FA040023D15DB1012D06D0022D36
:1051800001D080241CE042F6104004E042F60D40BD
:1051900001E042F6064000F0B8FA040010D100F039
:1051A000E4FA04000CD1424600216846FFF767FF8D
:1051B000040005D10022012101A8FFF760FF044689
:1051C00000F033FB4CB9BDF8000000F0C0FA3860C5
:1051D000BDF8040000F0B0FA30602046C0E730B4FB
:1051E000029C23B1012B05D030BC802070472346A0
:1051F00030BCB7E7234630BC66E7FE49087070470D
:1052000070B500F08DFA054643F2A20000F07DFA79
:1052100040EA050400F009FB1CB94CF2503000F0E4
:10522000F6FC204670BD38B5F3490446886940F065
:1052300008028A6100F0CAFAFFF7E2FFED48047045
:10524000642001F03CF9EB493224002308311A466E
:10525000081F0094FFF7C3FF642001F030F9E5490F
:10526000012308310022081F0094FFF7B8FF6420D3
:1052700001F025F9642001F022F901210020FFF757
:105280008DFE04460146DDA00CF0B0FD002C04D0DC
:10529000BDE83840E2A00CF0A9BD38BDF8B5054620
:1052A00000F03EFA06464FF45E5000F02EFA40EA57
:1052B00006042146E4A00CF099FD8CB900F055FAE3
:1052C00004000DD1642200216846FFF7D8FE0400D7
:1052D00006D1002201210DF10200FFF7D0FE0446A5
:1052E00000F0A3FA4CB900984FEA304028600098CB
:1052F0004FEA3041DDA00CF079FD2046F8BD70B5D5
:10530000054600F00DFA04000FD14FF22D3000F0E9
:10531000FCF9040009D100F028FA040005D10022AC
:1053200001212846FFF7ABFE044600F07EFA204636
:1053300070BD10B500F0F4F9040004D143F241004F
:1053400000F0E3F9044600F070FA204610BD7CB589
:105350000D46064600F0E4F9040021D14FF4604008
:1053600000F0D3F904001BD100F0FFF9040017D1BD
:105370000A2200216846FFF782FE040010D10022B5
:10538000012101A8FFF77BFE040009D1BDF8000050
:1053900000F0DDF93060BDF8040000F0CDF92860C0
:1053A00000F043FA20467CBD10B500F0B9F90400C6
:1053B00004D143F26D0000F0A8F9044600F035FA7C
:1053C000204610BD10B500F0ABF9040004D143F243
:1053D000660000F09AF9044600F027FA204610BD56
:1053E000F8B50C4610F1FF4F08D2A549884205DCFC
:1053F000A44A944202D8A44A944201DD8020F8BD18
:1054000021F00EFFA14E314622F09CF822F01AF84E
:10541000054620469E4921F08FFE9E4921F000FF5F
:10542000314622F08FF822F00DF805F47E41C0F3EA
:10543000C8100143080A8DF800008DF80110022100
:105440006846FFF702FE04469DF8000000F007FAE8
:105450000028D4D19DF8010000F001FA0028CED137
:10546000204600F0FCF9F8BD2DE9F05F1D46DDE9AE
:105470000AA816468B4681460D9F00F051F904009C
:105480000AD146F21D1000F040F9040004D159463B
:105490004846FFF7A5FF044600F0C7F9A4BB00F09B
:1054A0003FF904000AD146F2161000F02EF904006C
:1054B00004D129463046FFF793FF044600F0B5F9C2
:1054C00014BB00F02DF904000AD146F20B1000F0D5
:1054D0001CF9040004D141465046FFF781FF044601
:1054E00000F0A3F984B900F01BF904000AD14FF4CD
:1054F000C24000F00AF9040004D139460C98FFF7C5
:105500006FFF044600F091F92046BDE8F09FF8B522
:105510000D460646002201216846FFF7B0FD040053
:105520000FD1BDF8000000F47E4000F005F93060B6
:10553000BDF800004FF6FF7101EAC01000F007F956
:1055400028602046F8BD2DE9F05F1D46DDE90AA878
:1055500016468B4681460D9F00F0E2F804000ED1FE
:105560004EF21F1000F0D1F8040008D100F0FDF851
:10557000040004D159464846FFF7C9FF044600F02D
:1055800054F9ACBB00F0CCF804000ED14EF214106C
:1055900000F0BBF8040008D100F0E7F8040004D1E3
:1055A00029463046FFF7B3FF044600F03EF9FCB948
:1055B00000F0B6F804000ED14EF2091000F0A5F884
:1055C000040008D100F0D1F8040004D1414650464F
:1055D000FFF79DFF044600F028F94CB900F0A0F851
:1055E000040063D14EF2021000F08FF8040053E083
:1055F0005EE0000024000020001002400D0A20534D
:10560000485433585F5374617274506572696F64A3
:1056100069634D65617375726D656E743D256400D7
:105620000D0A2053485433585F53746172745065A7
:1056300072696F6469634D65617375726D656E74CF
:10564000206F6B20000000000A0D2053485433588F
:105650005F5772697465436F6D6D616E642020657C
:1056600072726F723D307825303278000D0A2073E7
:10567000657269616C4E62723D2564200D0A2000DE
:105680000000C842000034C20000024300FF7F4710
:105690000000344200002F4308D100F066F80400F7
:1056A00004D139460C98FFF732FF044600F0BDF8EC
:1056B00020462AE710B5344800F0A9FABDE81040AA
:1056C0004CF2503000F0A3BA7CB5642000F0F7FE35
:1056D0002E49081FFFF73BFE01462DA00CF086FB6C
:1056E0002A4908394C68CC608868086121F0F8FCC8
:1056F00005460E46204621F0F3FCCDE90056024651
:105700000B4628A00CF072FB7CBD70B50446000A65
:1057100000F0A5F80546E0B200F0A1F8284370BDFE
:1057200010B500F068F8194808380078BDE8104056
:105730004006000E00F093B810B521F0BBFE1F49E3
:1057400021F000FFBDE810401D4921F069BD10B5F2
:1057500021F0B0FE1B4921F0F5FE194921F060FD52
:10576000BDE81040184921F0EBBF10B500F043F838
:105770000648083801210078BDE8104001EB4000E0
:10578000C0B200F06CB80000A08601002C00002020
:105790000A0A6572726F72323D3078253032580DC8
:1057A0000A0000000A0A74656D3D2025662020204D
:1057B00068756D3D25660D0A000000000000C842B6
:1057C00000FF7F4700002F4300003442FE488169FC
:1057D00041F008018161FD488021016040210160A4
:1057E000FA481038016821F07F410160016841F0FA
:1057F000AA410160704710B5F44C80202060012060
:1058000000F005FA40202060012000F000FA4FF47B
:10581000000020600A2000F0FAF94FF480002060B8
:10582000BDE810400A2000F0F2B910B5E74C4FF483
:1058300080002060012000F0EAF94FF400002060B1
:10584000012000F0E4F9402020600A2000F0DFF998
:1058500080202060BDE810400A2000F0D8B92DE972
:10586000F05F8024D94D82464FF000094FF4000BC1
:10587000264640274FF4800814EA0A0F02D1C5F8E3
:1058800000B000E02E60012000F0C1F92F6005207B
:1058900000F0BDF9C5F80080012000F0B8F96408F7
:1058A000EAD12E602F60012000F0B1F9C748083816
:1058B0000068000601D54FF00109C5F800801420EA
:1058C00000F0A5F94846BDE8F09F2DE9F74F0646E0
:1058D00000203070BD484FF0800AC0F800A0BB4FD8
:1058E00055464FF0400B083F8146C9F800B00120F3
:1058F00000F08DF94FF00008029C08E0641EE4B24D
:1059000001D2042407E04FF47A7000F080F938687F
:105910004006F3D54446032000F079F938680006C4
:1059200002D53078284330704FF48000C9F8000069
:10593000012000F06CF96D08D7D10198A8B1C9F821
:1059400000A0012000F063F94D46C9F800B0052021
:1059500000F05DF94FF480002860C5F800A0142025
:1059600000F055F92046BDE8FE8F4FF40001C9F85C
:105970000010E6E710B5FFF73EFF0020FFF76FFFCE
:10598000002803D1BDE81040062068E710BD00EBF9
:1059900080008006000E401EC0B2FCD270478B4AC9
:1059A00000B5802010600520FFF7F1FF4020106057
:1059B0000520FFF7ECFF854B083B1868000608D56B
:1059C0004FF4000010600520FFF7E1FF18680006A3
:1059D00001D5002000BD4FF4800010600520FFF7C6
:1059E000D6FF012000BD794A00B54FF400001060D9
:1059F000401010600520FFF7CAFF4020106005200E
:105A0000FFF7C5FF8020106000BD00B56F4A012878
:105A10000ED04FF400001060402010600520FFF70A
:105A2000B6FF4FF48000106005205DF804EBAEE790
:105A30008020F0E7654A10B50020802111604021E8
:105A4000116062494FF4FA74083903E0401C80B2D7
:105A5000A04202D00B681B06F8D408684FF48003FC
:105A6000000602D51360002010BD0520FFF78FFF50
:105A700013600520FFF78BFF012010BDF0B5534CDC
:105A80004FF4800503462560002280266F004FF00A
:105A9000400C180601D5266000E02760C4F800C05D
:105AA0000520FFF774FF25600520FFF770FF5806FB
:105AB000521C030ED2B2082AEBD3F0BDF0B5434D11
:105AC0000022802028600120FFF761FF3F4E002365
:105AD0004024083E27045006020E2C603068000661
