:020000040800F2
:1000000098A8002059470008590600085B06000818
:100010005F0600086306000867060008000000008D
:100020000000000000000000000000006B06000857
:100030006D0600080000000007200108B544000814
:1000400073470008734700087347000873470008A8
:100050007347000873470008734700087347000898
:100060007347000873470008734700087347000888
:100070007347000873470008734700087347000878
:100080007347000873470008734700087347000868
:100090007347000873470008734700087347000858
:1000A0007347000873470008734700087347000848
:1000B00073470008EF1B00087347000873470008E8
:1000C0007347000873470008734700087347000828
:1000D00073470008A54600087347000873470008E7
:1000E0007347000873470008734700087347000808
:1000F00073470008734700087347000873470008F8
:100100007347000805370008734700087347000865
:100110007347000873470008671C0008734700080E
:1001200073470008734700087347000873470008C7
:1001300000F002F800F06DF80AA090E8000C82448C
:100140008344AAF10107DA4501D100F062F8AFF269
:10015000090EBAE80F0013F0010F18BFFB1A43F0A5
:100160000103184788A70400A8A704000A444FF019
:10017000000C10F8013B13F0070408BF10F8014B06
:100180001D1108BF10F8015B641E05D010F8016B4B
:10019000641E01F8016BF9D113F0080F1EBF10F8AF
:1001A000014BAD1C0C1B09D16D1E58BF01F801CBD2
:1001B000FAD505E014F8016B01F8016B6D1EF9D555
:1001C0009142D6D37047000000230024002500266A
:1001D000103A28BF78C1FBD8520728BF30C148BFAA
:1001E0000B60704766291FF02080642910F0C684D8
:1001F000782910F0FF84002070471FB511F0A8F98E
:100200000400002000211EF0D9F9E0601FBD10B5E8
:1002100010BD11F0B5FA1146FFF7EFFF00F049F9F4
:1002200011F0D3FA03B4FFF7F2FF03BC04F0DCF9DA
:100230000EB5002400BF0CE0601CC4B202A8082167
:100240004FF4FA730022CDE90010114610460EF06B
:10025000B0FFF1E70EB5002400BF442003F04CFDD1
:100260000FE0002000F028FB601CC4B202A80821A7
:100270004FF4FA730022CDE90010114610460EF03B
:1002800098FFEEE70EB5002400BF0CE0601CC4B27E
:1002900002A808214FF4FA730022CDE9001011469C
:1002A00010460EF086FFF1E70EB5002400BF0CE00B
:1002B000601CC4B202A808214FF4FA730022CDE9F1
:1002C0000010114610460EF074FFF1E70EB5002441
:1002D00000BFB7A010F01EFC10F0E9FA12E010F019
:1002E000C6FA601CC4B22146B4A010F013FC02A8E8
:1002F00008214FF4FA730022CDE900101146104690
:100300000EF057FFEBE730B58BB00446002500BF79
:1003100010F036F80AA80CF0DAFB0AAA0121084608
:1003200008F05FFC00BF00BF00BF10F061F9054698
:1003300000BF00BFA7480078401CA649087000BF56
:1003400000BF284610F058F900BF00BF00BF00F002
:1003500043FC13F0A1F80AA8032100220592CDE97D
:100360000621089010464FF40061CC229A4BCDE94B
:100370000132CDE9031008200023AFF2AF0297A1AC
:1003800000909B480CF07AFF0AA8032100220592F6
:10039000CDE90621089010464FF400713322954BA9
:1003A000CDE90132CDE9031004200023AFF207129A
:1003B00091A1009093480CF061FF0AA8032100224C
:1003C0000592CDE906210890104680210C228E4B23
:1003D000CDE90132CDE9031006200023AFF25B1214
:1003E0008AA100908C480CF049FF0AA80321002242
:1003F0000592CDE90621089010464FF40071332292
:10040000864BCDE90132CDE9031005200023AFF280
:10041000BB127EA1009082480CF030FF0AA8032195
:1004200000220592CDE906210890104680210C2279
:100430007C4BCDE90132CDE9031007200023AFF258
:100440000F2272A1009078480CF018FF0AA9774893
:100450000EF089FA00BF00BF00BF10F0C9F80546D2
:1004600000BF00BF5B480078401E5A49087008462C
:100470000078A0B96E480088002809DD00BF00BFE1
:10048000284610F0B9F800BF00BF08F092FF0DE059
:1004900000BF00BF284610F0AFF800BF06E000BF65
:1004A00000BF284610F0A8F800BF00BF00BF0BB087
:1004B00030BD10B58AB0002404F008F84FF4A060F5
:1004C00004F080FA0121402005F0FFF84FF4E130FC
:1004D00004F099F800F0BCF900F0D4F955A010F040
:1004E00019FB01F07DFA09A808F04CF900BF00BF24
:1004F00000BF10F07DF8044600BF00BF354800780B
:10050000401C3449087000BF00BF204610F074F84A
:1005100000BF00BF00BF09A8032100220592CDE95A
:100520000621089010464FF480616622464BCDE9C3
:100530000132CDE9031003200023AFF2352243A19D
:1005400000903A480CF09AFE00BF00BF00BF10F0C8
:100550004FF8044600BF00BF1E480078401E1D49EA
:10056000087008460078A0B931480088002809DDE5
:1005700000BF00BF204610F03FF800BF00BF08F0EA
:1005800018FF0DE000BF00BF204610F035F800BF97
:1005900006E000BF00BF204610F02EF800BF00BFED
:1005A00000BF09A808F0BDFB00200AB010BD7047CD
:1005B0000D0A6E6968616F0D0A0000000D0A656D15
:1005C00077696E64656D6F5F7461736B3D25640D53
:1005D0000A000000F8000020382D0020456D7769E2
:1005E0006E646973706C6179207461736B000000D4
:1005F000742C002028160020535953207461736B0B
:100600000000000064150020EC1E002073656E647D
:10061000207461736B000000281E0020B0210020B0
:10062000EC200020742A0020B0290020A004002023
:10063000BC0000200D0A2052465F496E6974206F8D
:100640006B200D0A000000006405002073746172C5
:1006500074207461736B0000704700BFFEE700BF39
:10066000FEE700BFFEE700BFFEE7704770470000EF
:100670000CB50020019000906C48006840F4803078
:100680006A49086000BF6948006800F400300090C3
:100690000198401C0190009818B90198B0F5A06F1E
:1006A000F1D16248006800F4003010B101200090E0
:1006B00001E0002000900098012843D15C480068C8
:1006C00040F010005A4908600846006820F0030016
:1006D00008600846006840F002000860534840681F
:1006E000524948600846406848600846406840F4FF
:1006F000806048600846406820F47C1048600846E6
:10070000406840F4E81048600846006840F0807097
:10071000086000BF4548006800F000700028F9D06C
:100720004248406820F0030040494860084640685D
:1007300040F00200486000BF3C48406800F00C00F8
:100740000828F9D10CBD10B5FFF792FF10BD10B508
:100750003648006840F001003449086008464068A7
:100760003449084031494860084600683249084029
:100770002E4908600846006820F48020086008467A
:10078000406820F4FE0048604FF41F008860FFF7C7
:10079000DAFF4FF000602949086010BD10B5002154
:1007A00000200022214B5B6803F00C0121B10429D9
:1007B00006D0082928D107E0214B224C236027E0EE
:1007C0001F4B204C236023E0184B5B6803F4701030
:1007D000164B5B6803F48032022303EB904022B98E
:1007E000194B4343174C23600DE0104B5B6803F437
:1007F000003323B1144B4343124C236003E0104BEE
:100800004343104C236003E00D4B0E4C236000BFAC
:1008100000BF064B5B68C3F303130C4CE15C094B50
:100820001B68CB40074C236010BD00000010024045
:10083000002002400000FFF8FFFFF6FE08ED00E098
:1008400000127A000000002000093D000400002092
:1008500008B50121402004F045FF10208DF8030069
:1008600003208DF802002020ADF8000069460448FE
:1008700004F07CFC2021024804F025FD08BD0000A6
:100880000018014008B50121442004F02BFF1C2072
:10089000ADF8000048208DF803006946354804F0A3
:1008A00065FC0120ADF8000028208DF803006946A2
:1008B000314804F05BFC08BD10B5044614B10120BA
:1008C0002E4908702D480078002837D0102129487B
:1008D00004F0DFFC78B10821264804F0DAFC50B1BE
:1008E0000421244804F0D5FC28B10121224804F059
:1008F000D0FC012822D10A2003F041FE00201F492C
:10090000087010211B4804F0C4FC08B9012010BD78
:100910000821184804F0BDFC08B90220F7E70421BB
:10092000144804F0B6FC08B90320F0E7012112488E
:1009300004F0AFFC01281BD10420E8E710210D488A
:1009400004F0A7FC012813D108210A4804F0A1FCF7
:1009500001280DD10421074804F09BFC012807D190
:100960000121054804F095FC10B9012003490870E5
:100970000020CCE7001801400008014014000020CE
:10098000FE4908807047FD49891C0880704700B502
:1009900002461046FFF7F7FF00BDF84A1080921C90
:1009A0001180704700B5F6490889FFF7E9FF00BDDF
:1009B00000B502460B46F2494889FFF7E1FF1012E5
:1009C000FFF7E1FFD0B2FFF7DEFF511C0812FFF77F
:1009D000DAFF511C88B2FFF7D6FFE9498889FFF793
:1009E000CFFF1812FFF7CFFFD8B2FFF7CCFF591C8B
:1009F0000812FFF7C8FF591C88B2FFF7C4FFFFF7C2
:100A0000D1FF00BD30B504460D4629462046FFF70C
:100A1000CFFFDC480088FFF7B6FF30BD30B5044695
:100A20000D46D7494889FFF7ABFF2012FFF7ABFF10
:100A3000E0B2FFF7A8FF1012FFF7A5FFD0B2FFF753
:100A4000A2FFCF498889FFF79BFF2812FFF79BFF82
:100A5000E8B2FFF798FF1812FFF795FFD8B2FFF73B
:100A600092FFFFF79FFF30BD30B504460025C44814
:100A70004088401E83B2C2480088401E82B20021D6
:100A80000846FFF7CBFF00BF03E0BC48801C048092
:100A90006D1CB5F5163FF8D330BD00B59FB00121F0
:100AA000080204F012FE012140F2691004F01AFE5F
:100AB0000120ADF8780010208DF87B0003208DF820
:100AC0007A001EA9B04804F051FB4CF23370ADF827
:100AD000780018208DF87B0003208DF87A001EA97D
:100AE000AA4804F043FB4FF68070ADF87800182058
:100AF0008DF87B0003208DF87A001EA9A44804F02D
:100B000035FB41F20100ADF8780018208DF87B002C
:100B100003208DF87A001EA99E4804F027FB0120CF
:100B20000890002009900F200A9000200B900C9054
:100B30000D900E900220019000200290052003905D
:100B40000020049005900690079006200F9000204A
:100B50001090119010201290002013901590149076
:100B6000169017904FF480501890002019904FF471
:100B700080401A9000201B9008A81C9001A81D908E
:100B80000FA803F0D9FF0121062004F03DF91FB0A2
:100B900000BD10B5202080494861642003F0EFFCBF
:100BA00020207D490861322003F0E9FC10BD00B52A
:100BB0002A20734948812B2088812C20088101201C
:100BC00088714FF4F07008804FF4A0704880A8211D
:100BD0003620FFF7E2FE00BD10B5FFF75EFFFFF71E
:100BE000D8FFF920FFF7CCFE0020FFF7CCFE08204D
:100BF000FFF7C9FEC020FFF7C3FE1920FFF7C3FEB1
:100C00001A20FFF7C0FEC120FFF7BAFE4520FFF70C
:100C1000BAFE0020FFF7B7FEC220FFF7B1FE332077
:100C2000FFF7B1FEC520FFF7ABFE0020FFF7ABFEDC
:100C30002820FFF7A8FEB120FFF7A2FEA020FFF7B3
:100C4000A2FE1120FFF79FFEB420FFF799FE0220BD
:100C5000FFF799FEB620FFF793FE0020FFF793FE03
:100C60004220FFF790FE3B20FFF78DFEB720FFF7F5
:100C700087FE0720FFF787FEE020FFF781FE1F2099
:100C8000FFF781FE2520FFF77EFE2220FFF77BFE87
:100C90000B20FFF778FE0620FFF775FE0A20FFF70E
:100CA00072FE4E20FFF76FFEC620FFF76CFE392064
:100CB000FFF769FE0020FFF766FE0020FFF763FEE6
:100CC0000020FFF760FE0020FFF75DFE0020FFF729
:100CD0005AFE0020FFF757FEE120FFF751FE1F20CC
:100CE000FFF751FE3F20FFF74EFE3F20FFF74BFE80
:100CF0000F20FFF748FE1F20FFF745FE0F20FFF7EC
:100D000042FE4620FFF73FFE4920FFF73CFE312020
:100D1000FFF739FE0520FFF736FE0920FFF733FE07
:100D20000320FFF730FE1C20FFF72DFE1A20FFF7EF
:100D30002AFE0020FFF727FEF120FFF721FE3620D4
:100D4000FFF721FE0420FFF71EFE0020FFF71BFE29
:100D50003C20FFF718FE0F20FFF715FE0F20FFF7CE
:100D600012FEA420FFF70FFE0220FFF70CFEF22078
:100D7000FFF706FE1820FFF706FE0FE0FE07006CE7
:100D8000384D002016000020000C014000140140E6
:100D9000001801400020014000100140A320FFF78F
:100DA000F2FD1220FFF7EFFD0220FFF7ECFD3220ED
:100DB000FFF7E9FD1220FFF7E6FDFF20FFF7E3FD57
:100DC0003220FFF7E0FD0020FFF7DDFDF420FFF704
:100DD000D7FD4020FFF7D7FD0020FFF7D4FD082006
:100DE000FFF7D1FD9120FFF7CEFD0420FFF7CBFDEB
:100DF000F820FFF7C5FD2120FFF7C5FD0420FFF710
:100E0000C2FD3620FFF7BCFD4820FFF7BCFD3A20AD
:100E1000FFF7B6FD5520FFF7B6FD1120FFF7B0FD37
:100E2000782003F0ACFB2920FFF7AAFDFFF7BFFEF7
:100E30000120F74908604FF6FF70FFF715FE10BD5F
:100E400070B505460E46144631462846FFF7B0FDFC
:100E50002046FFF79CFD70BD2DE9F84F06460F4672
:100E600014461D46DDF82890A01B401C1FFA80FA8E
:100E7000E81B401C1FFA80FB0BFB0AF00090681E69
:100E800083B2601E82B239463046FFF7C7FD4FF08D
:100E9000000804E0DF48A0F8009008F1010800987D
:100EA0008045F7D3DC484088401E83B2DA4800888A
:100EB000401E82B200210846FFF7B0FDBDE8F88F62
:100EC0002DE9FF4F84B081468A46002003900290AE
:100ED0000698A0EB09050798A0EB0A06CDF8049048
:100EE000CDF800A0002D01DD012705E00DB9002798
:100EF00002E04FF0FF376D42002E02DD4FF0010897
:100F000006E016B94FF0000802E04FF0FF387642D5
:100F1000B54201DD2C4600E034464FF0000B21E0E5
:100F2000009A91B2019A90B2FFF76CFD03982844A1
:100F300003900298304402900398A04205DD039884
:100F4000001B03900198384401900298A04205DDEF
:100F50000298001B02900098404400900BF10100A1
:100F60001FFA80FB601C8345DADD08B0BDE8F08F16
:100F7000F0B504460D4616461F462B463246294616
:100F80002046FFF79DFF3B46224629462046FFF7B5
:100F900097FF3B46324639462046FFF791FF3B46D6
:100FA000324629463046FFF78BFFF0BDF8B50446C0
:100FB0000D4616461F46994800883B46324629464C
:100FC00000902046FFF748FFF8BD2DE9F0410446A8
:100FD0000D4616461F46DDF81880EA1991B2A2198F
:100FE00090B24246FFF72CFFEA1991B2A21B90B2D1
:100FF0004246FFF725FFEA1B91B2A21990B2424682
:10100000FFF71EFFEA1B91B2A21B90B24246FFF708
:1010100017FFAA1991B2E21990B24246FFF710FFEA
:10102000AA1991B2E21B90B24246FFF709FFAA1B30
:1010300091B2E21990B24246FFF702FFAA1B91B2A9
:10104000E21B90B24246FFF7FBFEBDE8F0812DE9BE
:10105000FF4F81B0824617469846DDF838B000242D
:1010600045464FEA4800C0F10306BBF1000F1FD010
:101070001BE0A14608E04B462246009750460299E5
:10108000FFF7A3FF09F10109A945F4DD002E04DAF9
:10109000042000FB0460861D06E0601B042101FBA8
:1010A000006000F10A066D1E641CAC42E1DD18E030
:1010B00015E02B462246009750460299FFF785FF20
:1010C000002E04DA042000FB0460861D06E0601B8D
:1010D000042101FB006000F10A066D1E641CAC4295
:1010E000E7DD05B0BDE8F08F2DE9FF4F82B0814606
:1010F0008A469346DDE90F64484800880190A6F1CE
:101100002000C6B204EBD47009EB6000401E82B22E
:101110000AEB0400401E83B2514648460094FFF794
:101120007DFC119850BB002525E00C2C07D106EB67
:1011300046003B4901EB800010F8058004E0394887
:1011400000EB061010F8058000270DE008F0010004
:1011500018B15846FFF71BFC02E00598FFF717FC93
:101160004FEA6808781CC7B204EBD471B7EB610F83
:10117000ECDB681CC5B2A542D7DB2DE0002529E0D9
:101180000C2C07D106EB4600254901EB800010F836
:10119000058004E0234800EB061010F805800027C6
:1011A00011E01E48A0F800B008F0010038B10AEBC9
:1011B000050291B209EB070290B2FFF723FC4FEA58
:1011C0006808781CC7B204EBD471B7EB610FE8DB99
:1011D000681CC5B2A542D3DB1049019808800E48AF
:1011E0004088401E83B20C480088401E82B2002115
:1011F0000846FFF713FC06B0BDE8F08F2DE9FE416D
:1012000006460F4615461C46DDF824802AE00000FD
:10121000808121420008006C384D0020160000201B
:101220002EF20108A2F60108FE480088401EB042D6
:1012300004DBFC484088401EB84201DABDE8FE816C
:1012400020788DE82101F8480388F848028839465B
:101250003046FFF749FF284605EBD07106EB6101E8
:101260008EB2641C20787E2802DC20782028DBDA0D
:1012700000BFE3E710B50246012000E050430B0039
:10128000A1F10104E1B2F9D110BD2DE9FF4F83B006
:10129000074691461E46109C4FF0000A002543E089
:1012A000701B401EC1B20A20FFF7E4FFB9FBF0F04B
:1012B0000A21B0FBF1F201FB1208BAF1000F1BD1B9
:1012C000701EA84218DDB8F1000F13D100202021B4
:1012D000A346CDE90014029004EBDB71491001FB39
:1012E000057188B2D0490B88D0490A880499FFF764
:1012F000FBFE17E04FF0010A002108F13000C0B2F8
:10130000A346CDE90141009004EBDB71491001FBDC
:10131000057188B2C4490B88C4490A880499FFF74B
:10132000E3FE00BF681CC5B2B542B9DB07B0BDE83B
:10133000F08F2DE9FC4F0546884691469A46DDF828
:101340002CB000952E20019000245FE004EB0410E7
:10135000B74911F810009BF80010884253D104EBF4
:101360000410B34901EB400040789BF8011088421B
:1013700049D108F10F0083B205F10F0082B2414656
:101380002846FFF74BFB00263BE0002734E00C9893
:1013900090B904EB0410A64901EB4000801C805D6D
:1013A00080213941084018B14846FFF7F0FA21E0A2
:1013B0005046FFF7ECFA1DE09C48A0F8009004EBC3
:1013C00004109B4901EB4000801C805D8021394165
:1013D000084018B141462846FFF714FB681C85B247
:1013E0000098281A102805D1009D08F101001FFA65
:1013F00080F803E0781CC7B2082FC8DB00BF701C60
:10140000C6B2202EC1DB00BF601C84B201988442AA
:101410009CDB84484088401E83B282480088401E7E
:1014200082B200210846FFF7F9FABDE8FC8F2DE9EA
:10143000FC4F0546884691469A46DDF82CB000954B
:1014400010200190002467E004EB840000EB4410BE
:10145000784911F810009BF80010884259D104EB2C
:10146000840000EB4410734901EB400040789BF886
:10147000011088424DD108F1170083B205F1170021
:1014800082B241462846FFF7C9FA00263FE000270E
:1014900038E00C98A0B904EB840000EB44106549D7
:1014A00001EB4000801C805D80213941084018B16B
:1014B0004846FFF76CFA23E05046FFF768FA1FE052
:1014C0005A48A0F8009004EB840000EB44105949FE
:1014D00001EB4000801C805D80213941084018B13B
:1014E00041462846FFF78EFA681C85B20098281AF4
:1014F000182805D1009D08F101001FFA80F803E0CB
:10150000781CC7B2082FC4DB00BF701CC6B2482EBF
:10151000BDDB00BF601C84B20198844294DB41486B
:101520004088401E83B23F480088401E82B200219E
:101530000846FFF773FABDE8FC8F2DE9FC4F05461E
:10154000884691469A46DDF82CB000950A20019015
:1015500000245FE004EB8410374911F810009BF879
:101560000010884253D104EB8410334901EB400052
:1015700040789BF80110884249D108F11F0083B2DE
:1015800005F11F0082B241462846FFF747FA0026C0
:101590003BE0002734E00C9890B904EB8410264916
:1015A00001EB4000801C805D80213941084018B16A
:1015B0004846FFF7ECF921E05046FFF7E8F91DE057
:1015C0001A48A0F8009004EB84101B4901EB40007E
:1015D000801C805D80213941084018B14146284671
:1015E000FFF710FA681C85B20098281A202805D148
:1015F000009D08F101001FFA80F803E0781CC7B2D3
:10160000082FC8DB00BF701CC6B2802EC1DB00BF34
:10161000601C84B2019884429CDB02484088401ED2
:1016200083B20BE0384D0020180000201600002087
:10163000EE0902080A100208AA140208E34800880A
:10164000401E82B200210846FFF7E8F9BDE8FC8F92
:101650002DE9FF5F0546884691469A46DDF838B089
:10166000029503200390002463E04D206043D84995
:10167000085C9BF80010884258D14D206043D44943
:10168000084440789BF8011088424FD108F11800B7
:1016900083B205F1180082B241462846FFF7BEF931
:1016A000002639E0002732E00F9888B94D206043CA
:1016B000C7490844801C805D80213941084018B129
:1016C0004846FFF764F920E05046FFF760F91CE058
:1016D000C048A0F800904D206043BD490844801CDC
:1016E000805D80213941084018B141462846FFF706
:1016F00089F9681C85B20298281A192805D1029D1B
:1017000008F101001FFA80F803E0781CC7B2082F27
:10171000CADB00BF701CC6B230461DF04BF8002279
:10172000AD4BCDE900011DF059F8BBD300BF601CE3
:1017300084B20398844298DBA4484088401E83B258
:10174000A2480088401E82B200210846FFF766F9D1
:10175000BDE8FF9F2DE9FC4F0546884691469A4615
:10176000DDF82CB000950220019000245FE004EB2E
:1017700004109A4911F820009BF80010884253D1B8
:1017800004EB0410954901EB800040789BF80110B0
:10179000884249D108F1140083B205F1140082B2E5
:1017A00041462846FFF73AF900263BE0002734E09F
:1017B0000C9890B904EB0410884901EB8000801C60
:1017C000805D80213941084018B14846FFF7DFF8B5
:1017D00021E05046FFF7DBF81DE07E48A0F80090BE
:1017E00004EB04107D4901EB8000801C805D8021AA
:1017F0003941084018B141462846FFF703F9681CF3
:1018000085B20098281A152805D1009D08F101001D
:101810001FFA80F803E0781CC7B2082FC8DB00BFAE
:10182000701CC6B23F2EC1DB00BF601C84B20198A1
:1018300084429CDB65484088401E83B26348008830
:10184000401E82B200210846FFF7E8F8BDE8FC8F91
:101850002DE9FF4F83B0064688469146DDE91147E2
:10186000109DB2464FF0000B87E0BBF1000F40D156
:1018700004EBD471554A1288A2EB6101B14204DB3A
:1018800052494988091B414502DA07B0BDE8F08F8B
:101890002878802802DD4FF0010B6EE028780D28B3
:1018A00006D108EB04001FFA80F856466D1C1EE0B6
:1018B000102C0DDD102128788DE883004A46414622
:1018C0003046069BFFF710FC06F1080086B20EE0DA
:1018D00028788DE891004A4641463046069BFFF73E
:1018E00003FC204604EBD07106EB61018EB26D1C47
:1018F00043E036480088001BB04204DB3348408890
:10190000001B404500DAC0E74FF0000B202C08D147
:10191000CDE900574A4641463046069BFFF70DFE8B
:1019200028E0182C08D1CDE900574A4641463046F8
:10193000069BFFF77CFD1DE0192C08D1CDE900576F
:101940004A4641463046069BFFF782FE12E0152CC0
:1019500008D1CDE900574A4641463046069BFFF77D
:10196000F9FE07E0CDE900574A4641463046069B5E
:10197000FFF7DFFCAD1C301986B2287800287FF411
:1019800074AF00BF81E72DE9FF4F83B004460F46D7
:101990009046DDE9119A109D28460FF0F3F986B2C2
:1019A0000A490988A1EBC60000EBD071C1F34F0BC7
:1019B00004EB0B0188B28DE8200642463946069BAF
:1019C000FFF746FF07B0BDE8F08F0000384D00205C
:1019D000BE1902081600002000E05540A51A0208B2
:1019E0006248406940F480706049486108468069F7
:1019F00040F0200088610846806940F0400088611E
:101A00000846806940F0800088610846806940F49B
:101A10008070886156480068002055490860084673
:101A2000006840F0BB300860081F006800F0FF202D
:101A3000091F08600846006840F0BB1008604D4868
:101A4000006800204B4908600846006840F0BB3041
:101A50000860081F0068484908404649091F086097
:101A600008460068454908434249091F0860444840
:101A7000006880B24249086008460068414908434E
:101A80003F490860081F006800F07F40091F086098
:101A9000084600683C4908433949091F08603B482B
:101AA000406820F47060394948600846406840F456
:101AB000306048600846006800F07F4008600846D3
:101AC0000068314908433149086000204FF0204147
:101AD000086148612E490860C806006940F48050DA
:101AE000C90608610846006940F010000861084610
:101AF000406940F4407048610846406948610846C2
:101B0000406948616FF07040C1F8140108460069EF
:101B100040F001000861704710B506E004784FF00E
:101B2000D0435C54491C401C521E002AF6D110BD03
:101B300006E04FF0D0435B5C00F8013B491C521EAD
:101B4000002AF6D1704713B504460122214601A8A8
:101B5000FFF7E2FF1CBD18B5044601222146684686
:101B6000FFF7E6FF9DF8000018BD000000100240DE
:101B7000041401400418014000FFFF0FBB0000B037
:101B8000041C01400000BBBBBBBBBB0000200140EC
:101B9000140100A07FB504460D460121022003F088
:101BA000AEFDADF804500020ADF80600ADF80840D9
:101BB000ADF80A0001A9314803F0CCFE012211461C
:101BC0002E4804F03EFA1D208DF8000000208DF80C
:101BD000010003208DF8020001208DF80300684603
:101BE00002F0F5FE0121254804F010FA7FBD10B582
:101BF00006F05EFE0121214804F0D1FC18B101215C
:101C00001E4804F0DDFC06F064FE10BD7FB50446FE
:101C10000D460121102003F072FDADF804500020A4
:101C2000ADF80600ADF80840ADF80A0001A9144867
:101C300003F090FE01224121114804F002FA3620FF
:101C40008DF8000001208DF8010003208DF80200BE
:101C500001208DF80300684602F0B9FE0121084812
:101C600004F0D4F97FBD10B50121054804F097FCBC
:101C70000121034804F0A4FC10BD00000004004052
:101C80000010004001460020012900D011B9FE4B90
:101C9000197000E0262070470146FC4A506820F089
:101CA000FF0008435060704770B5044605E0F748F0
:101CB000456B05F0450000B100E0F8E700BF0420E7
:101CC00004F04BFF20B1042004F051FF032070BD4D
:101CD000012004F042FF20B1012004F048FF012060
:101CE000F5E7EA480069A04201D01020EFE740F292
:101CF000FF50E64988630846406908210840C0B2A1
:101D0000E5E72DE9FC4107460D46002600240020AA
:101D1000009001900820DE490860102048604020B3
:101D200088600020C8604FF480600861084604F0B5
:101D30009DFE1020FFF7B8FF044614B12046BDE811
:101D4000FC81D44800880004D149086037204860ED
:101D5000402088600020C8604FF480600861084619
:101D600004F084FE3720FFF79FFF04460CB12046A5
:101D7000E5E74FF0FF30C849086008204860302090
:101D800088600220C8600020086101204861084680
:101D900004F095FE0020BE490860332048604020D2
:101DA00088600020C8604FF480600861084604F035
:101DB0005DFE3320FFF778FF04460CB12046BEE7F6
:101DC0000CE04FF4001004F0C8FE38B104F099FEA6
:101DD0004DF82600761C022E00D306E0AB48406B7F
:101DE00040F22A6108400028EBD000BF082004F030
:101DF000B4FE20B1082004F0BAFE04209FE70220C0
:101E000004F0ABFE20B1022004F0B1FE022096E700
:101E1000202004F0A2FE20B1202004F0A8FE06201D
:101E20008DE74FF4007004F098FE28B14FF4007075
:101E300004F09DFE072082E740F2FF5004F097FE79
:101E400000980006009901F47F4140EA01200099C2
:101E500001F47F0140EA1120009940EA11606860B6
:101E600001980006019901F47F4140EA012001999F
:101E700001F47F0140EA1120019940EA11602860D5
:101E800020465CE77CB505460024002000900190C8
:101E900000260DB1022600E000267C48406900F0D3
:101EA000007008B10E207CBD7A49098888B2694665
:101EB000FFF727FF04460CB12046F4E7019800F431
:101EC000802060B37348008800047149086037209F
:101ED0004860402088600020C8604FF4806008613E
:101EE000084604F0C3FD3720FFF7DEFE04460CB1C0
:101EF0002046D8E7664806600620654948604020CD
:101F000088600020C8604FF480600861084604F0D3
:101F1000ADFD0620FFF7C8FE04462046C3E7252096
:101F2000C1E770B5044600255C480078032801D15C
:101F3000272070BD5948007838B1584800780128EA
:101F400003D056480078022818D1022C01D327204C
:101F5000EFE7E0B2FFF796FF05467DB94B484068D2
:101F600020F4C0504949486008464068A1B240EAA0
:101F7000C120464948600846406848602846D8E77E
:101F800010B504464248046007204149486040209B
:101F900088600020C8604FF480600861084604F043
:101FA00065FD0720FFF780FE10BDF0B5014600205B
:101FB00000223A4B1B7881F85630364B1B88A1F82B
:101FC0005430374B1B681A0E93090B70C2F383030E
:101FD0004B7002F003038B70314B1B68C3F3074255
:101FE000CA702F4B1B88C3F307220A712C4B1A7837
:101FF0004A715B681A0E1301CB80294B5B68C3F3EF
:102000000742CB8843EA1213CB8002F00F030B7216
:10201000234B9B88C3F30722D3094B72C2F380136F
:102020008B72C2F34013CB72C2F300130B73002305
:102030004B731A4B1B783BB1184B1B78012B03D009
:10204000164B1B78032B5ED193071B0D0B61144BB2
:102050001A790B6943EA82030B61114B9B681A0ED4
:102060000B6943EA92130B61C2F3C2030B7502F0D2
:1020700007034B750A4B9B68C3F3074253098B75E3
:10208000C2F38203CB750DE02400002000800140E4
:10209000604D002020000020744D00201C00002016
:1020A0008C4D002093075B0F0B76F74B1B89C3F316
:1020B00007220B7E43EAD2130B760B695B1C0024CC
:1020C000C1E912340B7E9B1C012404FA03F3DC17D4
:1020D000D1E91256A5FB037C06FB03C305FB0433C1
:1020E000C1E912730C7A0123A3400B650024D1E9E6
:1020F00012650B6DA6FB037C05FB03C306FB0433D3
:10210000C1E912732EE0E14B1B78022B2AD1DE4B82
:102110001A7993069B0A0B61DB4B9B681A0E0B69BD
:1021200043EA02230B61D84B9B68C3F307420B6958
:1021300013430B61D44B1B89C3F307220B695B1C50
:102140004FF40074A3FB04464FF480630025A4FB06
:10215000037C06FB03C304FB0533C1E912734FF490
:1021600000730B65C2F3801301F8193F93065B0EF1
:102170004B70C54B1A7A4B7843EAD2134B7002F07E
:102180007F038B70C04BDB681A0ED309CB70C2F390
:1021900041130B71C2F382034B7193071B0F8B71B9
:1021A000B94BDB68C3F307428B7943EA92138B7117
:1021B000C2F34013CB7100230B7202F001034B7288
:1021C000B14B9B89C3F30722D3098B72C2F38013EF
:1021D000CB72C2F340130B73C2F300134B73C2F301
:1021E00081038B7302F00303CB73A74B1A7B530855
:1021F0000B7401234B74A64B1B681A0ECA74193951
:10220000A34B1B68C3F307421402CC85A04B1B8869
:10221000C3F30722CB8D1343CB859D4B1A7814064D
:102220000C635B681A0E0B6B43EA02440C63984B19
:102230005B68C3F307420B6B43EA02240C63944BC5
:102240009B88C3F307220B6B13430B63904B1A79E4
:1022500034235A548E4B9B681A0E35235A548C4B98
:102260009B68C3F3074214068C63894B1B89C3F335
:1022700007228B6B43EA02448C63854B1A7A8B6B83
:1022800043EA02248C63824BDB681A0E8B6B134388
:102290008B637F4BDB68C3F307423C235B5C43EA01
:1022A00012143C235C5413071C0DCC87784B9B897C
:1022B000C3F30722CB8F1343CB87754B1A7B54088C
:1022C00040235C54012441235C54F0BD70B50026CA
:1022D0004FF4803505E06F48446B04F0450000B1D1
:1022E00003E02800A5F10105F5D100BF15B104F008
:1022F000040028B10326042004F039FC304670BDE8
:10230000012004F02AFC18B10126012004F02FFC62
:1023100040F2FF5004F02BFC3046F0E72DE9F0418D
:1023200005460E464FF0000805E05A48476B07F097
:10233000450000B100E0F8E700BF042004F00DFC08
:1023400028B1042004F013FC0320BDE8F081012033
:1023500004F003FC20B1012004F009FC0120F4E7A3
:102360004C480069A84201D01020EEE740F2FF502F
:1023700004F0FDFB4748446904F4604018B9200CA0
:1023800030804046E1E704F4005008B11320DCE758
:1023900004F4804008B11020D7E704F4004008B1ED
:1023A0000F20D2E74046D0E738B500240120009046
:1023B00004F047FB08B9252038BD344800780428CC
:1023C00021D000203449086002204860C020886085
:1023D0000020C8604FF480600861084604F046FBA6
:1023E000FFF774FF04460CB12046E5E72948406931
:1023F000274908602748806948602648C069886086
:102400002448006AC8602148007858B11F48007805
:10241000012807D01D480078062803D01B48007803
:10242000022816D100201C49086003204860402083
:1024300088600020C8604FF480600861084604F09E
:1024400015FB69460320FFF769FF04460CB12046DF
:10245000B2E70E480078032820D1BDF80000000440
:102460000D49086003204860402088600020C86053
:102470004FF480600861084604F0F8FAFFF726FF81
:1024800004465CB1204697E78C4D00201C000020DC
:102490009C4D002000800140604D0020FE480078E7
:1024A000042827D0BDF80000FC490860BDF80000F2
:1024B0000004FB49086009204860C02088600020B3
:1024C000C8604FF480600861084604F0CFFAFFF757
:1024D000FDFE04460CB120466EE7F2484069F24921
:1024E0000860F04880694860EE48C0698860ED483F
:1024F000006AC86000205FE710B505E0E948446B5A
:1025000004F0450000B100E0F8E700BF042004F04B
:1025100024FB20B1042004F02AFB032010BD40F26C
:10252000FF5004F024FB0020F8E770B500264FF4BC
:10253000803505E0DB48446B04F0450000B103E062
:102540002800A5F10105F5D100BF15B104F0040084
:1025500028B10326042004F00AFB304670BD04F0C5
:10256000400018B10026402004F001FB3046F5E79A
:1025700070B500254FF4803404E0802004F0EDFABB
:1025800000B103E02000A4F10104F6D100BF0CB9B2
:10259000032070BD40F2FF5004F0E9FA2846F8E746
:1025A0002DE9F0470027002400260025A046A1467B
:1025B000B220BE4908750020086048608860C86085
:1025C0000861084604F012FA032004F02FFA0120F3
:1025D00004F029FA00BF12E00020B1490860486009
:1025E0008860C8604FF480600861084604F03EFAD5
:1025F000FFF7BEFF044604B903E0781CC7B24A2FB8
:10260000EADB00BF14B12046BDE8F0874FF4D57077
:10261000A349086008204860402088600020C86006
:102620004FF480600861084604F020FAFFF77DFF50
:10263000044624B90120984908704FF080490020D1
:102640009749086037204860402088600020C860B3
:102650004FF480600861084604F008FA3720FFF75D
:1026600023FB0446002C4BD134E000208C49086049
:1026700037204860402088600020C8604FF48060A8
:102680000861084604F0F2F93720FFF70DFB044615
:102690000CB12046B8E7864849EA00008049086046
:1026A00029204860402088600020C8604FF4806086
:1026B0000861084604F0DAF9FFF71EFF04460CB182
:1026C0002046A1E777484669012080EAD67080F06D
:1026D00001086D1CB8F1000F03D14FF6FF70854261
:1026E000C3D34FF6FF70854202D31B2420468BE7ED
:1026F00006F08040060032D00220674908702EE0C4
:102700001CE06C48664908600120486040208860F1
:102710000020C8604FF480600861084604F0A6F904
:10272000FFF7EAFE04460CB120466DE75D484669B6
:10273000012080EAD67080F001086D1CB8F1000F0E
:1027400003D14FF6FF708542DBD34FF6FF70854211
:1027500002D31B24204657E703204F490870204628
:1027600052E77CB5002500240121302002F0BAFF99
:10277000012140F2024002F0A8FF4FF4F850ADF8FA
:10278000000018208DF8030003208DF80200694630
:10279000494802F0EBFC0420ADF8000018208DF849
:1027A000030003208DF802006946444802F0DEFC75
:1027B0008020ADF8000048208DF8030003208DF83C
:1027C000020069463D4802F0D1FC04F001F93120D5
:1027D0008DF8040000208DF805008DF8060001201A
:1027E0008DF8070001A802F0F2F8FFF7D9FE0446C1
:1027F00014B9FFF7D9FD04461CB93148FFF7D5FBE2
:10280000044634B92E49B1F854100804FFF7B8FB58
:1028100004461CB90120FFF784FB04461CB11E4886
:102820000078032812D1264890F8560020B1244899
:1028300090F85600012801D10A2500E00425284619
:10284000FFF72AFA0020FFF71DFA044620467CBD58
:1028500010B5002004F0EAF8002010BD70B58CB06F
:1028600006460C4615460121022002F02EFF1548AF
:1028700004F098F90021134804F061FA0948803007
:10288000019002960395A0080490002005908020F6
:1028900006908000079017E01C0000202000002018
:1028A000604D0020008001408C4D0020484D0020EC
:1028B000000010800080FF800010014000140140E3
:1028C000B04D002044040240800008900020099090
:1028D0004FF400500A9000200B9001A9FA4804F030
:1028E00003FA0021F84804F02AFA0CB070BD014642
:1028F000002002E04910421CD0B20129FAD17047F1
:102900002DE9F84F8146174698460A9C4FF0000A79
:10291000D3464D464FF0FF36B9F1000F02D12620C5
:10292000BDE8F88F0020E949C862E948007802282C
:1029300005D10402780A40EAC8574FEA6828002007
:10294000E44988604860401E08600120486100201A
:10295000C8600861084604F0B2F8DC48406900F03D
:10296000007008B10E20DBE7002C21DDB4F5006F0C
:102970001EDC601E2040D8B92046FFF7B8FF00904B
:10298000D54804601020D449486040208860002069
:10299000C8604FF480600861084604F067F81020B2
:1029A000FFF782F98246BAF1000F03D05046B7E72D
:1029B0002620B5E700980001C649886008464460B3
:1029C0004FF0FF300860012048610220C8600020FD
:1029D0000861084604F073F8BF4807601120BE493B
:1029E0004860402088600020C8604FF48060086123
:1029F000084604F03BF81120FFF756F98246BAF179
:102A0000000F01D050468BE7B448007800285AD117
:102A100001F0E6FD18E04FF4004004F09EF878B1B4
:102A20004FF0000B06E0A9488030006845F82B0005
:102A30000BF1010BBBF1080FF5D32035A84E03E0D5
:102A40000EB904206CE7761EA048406B40F22A6164
:102A500008400028DFD0082004F07FF820B10820CB
:102A600004F085F804205BE7022004F076F820B13A
:102A7000022004F07CF8022052E7202004F06DF8D8
:102A800020B1202004F073F8062049E74FF40070CD
:102A900004F063F828B14FF4007004F068F80720E0
:102AA0003EE703E004F02DF828602D1D4FF40010E0
:102AB00004F053F80028F5D101F094FD40F2FF50E6
:102AC00004F055F832E08548007801282ED1002224
:102AD00021464846FFF7C2FE00208249087082491D
:102AE0000870824908707948C06B40F22A31084367
:102AF0007649C863012003F0B6FF00E0761E7248F5
:102B00004438006800F4005038B97848007820B99B
:102B10007448007808B9002EF0D10EB90420FFE601
:102B20007048007810B16F4890F800A05046F7E662
:102B30002DE9FF5F17469846DDE90E464FF0000984
:102B4000CA464FF0FF356A490098086000205F4987
:102B5000C8625F480078022805D10402780A40EA7A
:102B6000C8574FEA682800205A4988604860401ECC
:102B70000860012048610020C8600861084603F031
:102B80009EFF5248406900F0007018B10E2004B05A
:102B9000BDE8F09F002C21DDB4F5006F1EDC601E47
:102BA0002040D8B92046FFF7A2FE83464A48046079
:102BB000102049494860402088600020C8604FF4D8
:102BC00080600861084603F051FF1020FFF76CF8A1
:102BD0008146B9F1000F03D04846D8E72620D6E752
:102BE000012E70D906FB04F0B0F1007F01D326203E
:102BF000CDE74FEA0B103749886006FB04F04860C8
:102C00004FF0FF300860012048610220C8600020BA
:102C10000861084603F053FF2F48076012202E4931
:102C20004860402088600020C8604FF480600861E0
:102C3000084603F01BFF1220FFF736F88146B9F172
:102C4000000F01D04846A2E72448007800287DD133
:102C500001F0C6FC1EE04FF4004003F07EFFA8B177
:102C60004FF0000A08E019488030006820490968E0
:102C700041F82A000AF1010ABAF1080FF3D31C48FF
:102C8000006820301A490860154D03E00DB9042092
:102C90007DE76D1E0D48406B40F22A310840002848
:102CA000D9D0082003F059FF20B1082003F05FFFBE
:102CB00004206CE7022003F050FFD8B1022003F09B
:102CC00056FF022063E7A4E0440402400080014074
:102CD0001C000020744D0020604D002024000020C6
:102CE000FFFF7F0026000020250000202700002095
:102CF00028000020202003F030FF20B1202003F026
:102D000036FF062043E74FF4007003F026FF28B19A
:102D10004FF4007003F02BFF072038E709E003F0C1
:102D2000F0FEFA4909680860F8480068001DF74994
:102D300008604FF4001003F010FF0028EFD14FF4AB
:102D4000807003F00AFF20B3F14800E028E000782B
:102D500038B1EF480078012803D0ED480078022808
:102D600017D10020EB4908600C20486040208860A3
:102D70000020C8604FF480600861084603F076FECA
:102D80000C20FEF791FF8146B9F1000F01D04846B3
:102D9000FDE601F027FC40F2FF5003F0E8FE38E0CA
:102DA000DD480078012834D106FB04F100220098A8
:102DB000FFF754FD0020D94908700120D849087058
:102DC0000020D8490870D848C06B40F22A31084327
:102DD000D549C8630846C06A40F00800C86200E0F0
:102DE0006D1ED248006800F4005008B9002DF7D1DC
:102DF0000DB90420CBE600BFCA48007818B9C7480F
:102E000000780028F8D0C548007810B1C34890F881
:102E100000904846BBE61CB5044600200190009097
:102E2000C34800880004BB4908600D20486040206A
:102E300088600020C8604FF480600861084603F095
:102E400015FEB948406B009002E0B748406B009017
:102E5000009800F045000028F7D0012003F07DFE27
:102E600020B1012003F083FE01201CBD042003F0EB
:102E700074FE20B1042003F07AFE0320F5E7AA488F
:102E800000690D2801D01020EFE740F2FF5003F059
:102E90006EFEA548406901900198C0F34320207060
:102EA0000020E2E72DE9FF5F86B017469846149DA3
:102EB000002600200590049000248146039082465D
:102EC00002900195DDF818B0DDF818B0BBF1000FE5
:102ED00003D126200AB0BDE8F09F00209249C862C5
:102EE000944988604860401E0860012048610020C5
:102EF000C8600861084603F0E2FD8B48406900F0B5
:102F0000007008B10E20E5E781480078022805D15D
:102F10000502780A40EAC8574FEA6828002D1FDDED
:102F2000B5F5006F1CDC681E2840C8B92846FFF7BD
:102F3000DEFC059077480560102076494860402007
:102F400088600020C8604FF480600861084603F084
:102F50008DFD1020FEF7A8FE06461EB13046B9E7EB
:102F60002620B7E77248008800046A4908600D20EF
:102F70004860402088600020C8604FF4806008618D
:102F8000084603F073FD0D20FEF78EFE06460EB1D7
:102F900030469FE76448406903904FF0FF341BE0E0
:102FA000641E6348008800045A4908600D20486088
:102FB000402088600020C8604FF4806008610846A7
:102FC00003F054FD0D20FEF76FFE06460EB13046AD
:102FD00080E7554840690390039800F4807008B971
:102FE000002CDDD10CB9292074E74A48076018206D
:102FF00048494860402088600020C8604FF48060E5
:103000000861084603F032FD1820FEF74DFE064623
:103010000EB130465EE70020414908700598000176
:1030200044498860084645604FF0FF300860012041
:1030300048610020C8600861084603F040FD4FF079
:10304000FF343548007800285FD101F0C9FA43E029
:103050004FF4804003F081FDC8B30198A0EB090054
:10306000202821D20198A0EB090000F0030020B92C
:103070000198A0EB0900800804E00198A0EB09008A
:103080008008401C02904FF0000A09E0DBF80000C5
:1030900003F03BFD0AF1010A0BF1040B09F10409ED
:1030A00002988245F2D30FE04FF0000A05E05BF88A
:1030B0002A0003F02AFD0AF1010ABAF1080FF6D33B
:1030C0000BF1200B09F120096FF0404404E0FFE709
:1030D0000CB90420FEE6641E1348406B40F21A61EE
:1030E00008400028B4D0082003F037FD20B10820A4
:1030F00003F03DFD0420EDE6022003F02EFDD8B1E3
:10310000022003F034FD0220E4E630E02800002035
:103110001C000020604D002024000020260000201C
:10312000250000202700002000800140000402400C
:1031300020000020744D0020102003F00EFD20B16F
:10314000102003F014FD0520C4E64FF4007003F0D6
:1031500004FD28B14FF4007003F009FD0720B9E623
:1031600001F040FA40F2FF50FC4988633EE0FC4821
:10317000007801283AD1102229460698FFF76EFB05
:103180000020F8490870F8490870F8490870F348B9
:10319000C06B40F21A310843F049C8630846C06A60
:1031A00040F00800C86200E0641EF148006800F4C6
:1031B000005008B9002CF7D11CB9FFF7D2FA04204F
:1031C00088E64FF0FF3400E0641EE848007820B93C
:1031D000E448007808B9002CF6D10CB9042079E64F
:1031E000E048007810B1DF48007873E640F2FF5005
:1031F00003F0BDFC04A8FFF70EFE064603E004A89A
:10320000FFF709FE06463EB99DF810000728F6D0E4
:103210009DF810000628F2D030465BE62DE9FF5FEE
:1032200084B0DDE9124700260020039002900025BB
:1032300080468146019007FB04FBDDF810A0DDF815
:1032400010A0BAF1000F03D1262008B0BDE8F09F0E
:103250000020C249C862C74988604860401E0860B3
:10326000012048610020C8600861084603F027FC7F
:10327000BA48406900F0007008B10E20E5E7BE488A
:103280000078022808D10402DDE90601400A40EA7C
:10329000C1504912CDE90601002C1FDDB4F5006FC5
:1032A0001CDC601E2040C8B92046FFF720FB0390BD
:1032B000B24804601020B149486040208860002076
:1032C000C8604FF480600861084603F0CFFB10200F
:1032D000FEF7EAFC06461EB13046B6E72620B4E704
:1032E000012F6FD907FB04F0B0F1007F01D3262036
:1032F000ABE7A148007838B19F480078012803D097
:103300009D48007802282DD19D48008800049B49E3
:10331000086037204860402088600020C8604FF473
:1033200080600861084603F0A1FB3720FEF7BCFC73
:1033300006460EB1304688E79048076017208F494F
:103340004860402088600020C8604FF480600861B9
:10335000084603F08BFB1720FEF7A6FC06460EB1CD
:10336000304672E785490698086019204860402079
:1033700088600020C8604FF480600861084603F050
:1033800075FB1920FEF790FC06460EB130465CE74F
:10339000039800017749886007FB04F048604FF00C
:1033A000FF300860012048610020C86008610846BD
:1033B00003F085FB6A480078002871D1451E01F0B2
:1033C0000FF940E0F3E06548406B00F48040A8B39B
:1033D000ABEB080020281ED2ABEB080000F0030086
:1033E00018B9ABEB0800800803E0ABEB08008008DD
:1033F000401C01904FF0000909E0DAF8000003F0EA
:1034000084FB09F101090AF1040A08F10408019892
:103410008145F2D30FE04FF0000905E05AF829008A
:1034200003F073FB09F10109B9F1080FF6D30AF1B2
:10343000200A08F120086FF0404504E0FFE70DB9CD
:10344000042002E76D1E4548406B40F21A310840E7
:103450000028B8D0082003F080FB20B1082003F03A
:1034600086FB0420F1E6022003F077FB20B1022066
:1034700003F07DFB0220E8E6102003F06EFB20B194
:10348000102003F074FB0520DFE64FF4007003F01A
:1034900064FB30B14FF4007003F069FB0720D4E601
:1034A0002CE04FF4807003F058FB00B332480078F2
:1034B00038B131480078012803D02F48007802281D
:1034C00015D100202D4908600C20486040208860FC
:1034D0000020C8604FF480600861084603F0C6FA17
:1034E0000C20FEF7E1FB06460EB13046ADE601F0DA
:1034F00079F840F2FF5003F03AFB58E018480078A2
:10350000012854D107FB04F110220498FFF7A6F913
:103510000020144908700120134908700020134945
:1035200008700E48C06B40F21A3108430B49C8635B
:103530000846C06A40F00800C8624FF0FF3500E05E
:103540006D1E0B48006800F4005008B9002DF7D13B
:10355000C5B9FFF706F9042077E6000000800140B6
:103560002400002026000020250000202700002045
:1035700000040240744D00201C000020604D00201B
:10358000200000204FF0FF3500E06D1EC448007899
:1035900020B9C448007808B9002DF6D10DB904202F
:1035A00053E6C048007810B1BE4800784DE640F2BE
:1035B000FF5003F0DCFA02A8FFF72DFC064603E0FB
:1035C00002A8FFF728FC06463EB99DF80800072828
:1035D000F6D09DF808000628F2D0304635E610B542
:1035E000B148406B00F4807070B3B0480078012897
:1035F00014D10020AE4908600C204860402088604B
:103600000020C8604FF480600861084603F02EFA7D
:103610000C20FEF749FBA349087002E00020A149F5
:103620000870A148806B40F480709F498863084609
:10363000C06B4CF23A3188439B49C86301209849DA
:1036400008709848007810BD022003F086FA68B12F
:10365000022003F08CFA9448C06B4CF23A31884354
:103660009149C86302208F490870ECE7082003F0F5
:1036700074FA68B1082003F07AFA8B48C06B4CF2F8
:103680003A3188438849C863042086490870DAE7DC
:10369000202003F062FA68B1202003F068FA824823
:1036A000C06B4CF23A3188437F49C86306207D499C
:1036B0000870C8E7102003F050FA68B1102003F03A
:1036C00056FA7948C06B4CF23A3188437649C86360
:1036D000052074490870B6E74FF4007003F03DFA16
:1036E00070B14FF4007003F042FA6F48C06B4CF2B7
:1036F0003A3188436C49C86307206A490870A2E7D9
:103700000020A0E710B5FFF76AFF10BD70B50446B2
:10371000002514B92625284670BD66480088000497
:10372000634908600D204860402088600020C86020
:103730004FF480600861084603F098F90D20FEF709
:10374000B3FA05460DB12846E6E7574840692060C0
:103750002846E1E708B5002000906846FFF7D6FF4D
:1037600008B1FF2008BD0098C0F34320FAE72DE917
:10377000FE4F83460E4691460020029000253446B7
:103780004D48007818B1680240EAD45564020BF045
:103790000300F0B14FF0000A18E04FF40070009001
:1037A0004FEA4A20071945EBE0733A464348FFF7D2
:1037B000A7F802904FF40072404958460DF001FB03
:1037C0000BF5007B0AF1010000F0FF0ACA45E4DBBB
:1037D00016E0B9F1010F09D14FF4007022462B46D3
:1037E00000905846FFF78CF8029009E04FF4007003
:1037F00022462B46CDE900095846FFF799F9029079
:103800000298BDE8FE8F2DE9FE4F06468946924696
:103810000020029000254C462748007818B1680225
:1038200040EAD455640206F00300F0B14FF0000BFB
:1038300018E04FF40072314620480DF0C2FA4FF400
:10384000007000904FEA4B20071945EBE0733A46B1
:103850001A48FFF727FB029006F500760BF10100EE
:1038600000F0FF0BD345E4DB16E0BAF1010F09D1FC
:103870004FF4007022462B4600903046FFF712FBB3
:10388000029009E04FF4007022462B46CDE9000A71
:103890003046FFF7C3FC02900298BDE8FE8F00009F
:1038A0002700002026000020008001402500002085
:1038B000604D0020200000201C000020084E002049
:1038C00010B500F003FD10BD70B50446201200F0E5
:1038D0001BFD0546E0B200F017FD0543284670BD0C
:1038E00010B500F0D5FCFE4909784906080E00F035
:1038F0000BFD0446204610BD70B506460D46FFF789
:10390000EFFF0446002C72D1002E57D0012E2BD091
:10391000022E7FD1052D22D2DFE805F003090F1515
:103920001B0042F22F00FFF7CFFF04431AE042F2E0
:103930002D10FFF7C9FF044314E042F22B20FFF7DC
:10394000C3FF04430EE042F22930FFF7BDFF0443FA
:1039500008E042F22A70FFF7B7FF044302E044F0A8
:10396000800400BF00BF58E0052D22D2DFE805F03B
:1039700003090F151B0042F22400FFF7A5FF0443C3
:103980001AE042F22610FFF79FFF044314E042F2D0
:103990002020FFF799FF04430EE042F22230FFF7A8
:1039A00093FF044308E042F22170FFF78DFF0443C8
:1039B00002E044F0800400BF00BF2EE0052D24D2B9
:1039C000DFE805F003090F171D0042F23200FFF790
:1039D0007BFF04431CE042F23010FFF775FF044305
:1039E00016E042F23620FFF76FFF044310E015E0C7
:1039F00010E042F23430FFF767FF044308E042F280
:103A00003770FFF761FF044302E044F0800400BF19
:103A100000BF02E044F0800400BF00BFFFF750FF8A
:103A2000204670BD70B5044620461BF043FA06469A
:103A3000AC491BF087FA0546AB491BF025F970BD70
:103A40002DE9F041044620461BF034FA0746A74909
:103A50001BF078FA0646A4491BF016F90546A4495E
:103A60001BF06EFBBDE8F08130B502460B46FF202F
:103A7000002113E0555C684008240BE000F080054D
:103A800025B1312585EA4005E8B201E04506280E5A
:103A9000651EECB2002CF1DC4D1CE9B29942E9DB69
:103AA00030BD2DE9F04105460E4614463146284604
:103AB000FFF7DAFF0746A74202D00220BDE8F081F7
:103AC0000020FBE72DE9FC4105460E4617463A4625
:103AD000002101A800F06EFC044634B90022114612
:103AE0000DF1050000F066FC04462CB900223146B9
:103AF000684600F05FFC044634B99DF800200221BE
:103B000001A8FFF7CEFF04469DF805009DF80410BC
:103B100040EA012028802046BDE8FC8110B500F075
:103B2000B7FB6F490978012202EB4101C8B200F0EE
:103B3000EBFB0446204610BD2DE9FC4106460F462E
:103B400090461D46FFF7CCFE0446ECB9B8F1000FD5
:103B500011D0B8F1010F08D0B8F1020F11D142F223
:103B60001640FFF7B1FE04460DE042F20B40FFF7AE
:103B7000ABFE044607E04FF41050FFF7A5FE0446E5
:103B800001E0802400BF00BF8CB908E0FFF7C6FF4A
:103B9000044604B908E04FF47A7000F06EFC280087
:103BA000A5F10101CDB2F1D100BF05B904245CB982
:103BB0000022114601A8FFF785FF044300220121DE
:103BC0006846FFF77FFF0443FFF77AFE4CB9BDF864
:103BD0000400FFF735FF3060BDF80000FFF722FF5B
:103BE00038602046BDE8FC812DE9FC4105460E46C3
:103BF00017469846FFF774FE0446CCB97FB1012FF3
:103C000007D0022F11D142F61040FFF75DFE0446A7
:103C10000DE042F60D40FFF757FE044607E042F67E
:103C20000640FFF751FE044601E0802400BF00BFBC
:103C300014B9FFF773FF04462CB94246002101A8CE
:103C4000FFF740FF04462CB9002201216846FFF728
:103C500039FF0446FFF734FE4CB9BDF80400FFF706
:103C6000EFFE2860BDF80000FFF7DCFE3060204664
:103C7000BDE8FC812DE9F04706460F4690461D46FB
:103C8000DDF8209015B1012D10D107E04B464246DA
:103C900039463046FFF7A8FF044609E04B46424646
:103CA00039463046FFF748FF044601E0802400BF54
:103CB00000BF2046BDE8F08709490870704710B57D
:103CC000FFF70EFE044643F2A200FFF7FDFD04439A
:103CD000FFF7F6FD1CB94CF2503000F0CEFB09E0C6
:103CE0002C0000200000C84200FF7F4700002F4347
:103CF00000003442204610BD38B50546FE488069B4
:103D000040F00800FC49886100F0A8FAFFF7D7FFEF
:103D10002846FFF7D1FF642000F031FC3220002359
:103D20001A46F6490090F648FFF7A4FF04466420BF
:103D300000F025FC322001230022F0490090F048D9
:103D4000FFF798FF0446642000F019FC642000F09F
:103D500016FC01210020FFF7CFFD04462146E9A013
:103D60000CF0D8FE14B1F0A00CF0D4FE38BD38B57C
:103D70000546FFF7B5FD04464FF45E50FFF7A4FD7E
:103D800004432146F2A00CF0C5FE14B9FFF7C6FEAD
:103D900004462CB9642200216846FFF793FE0446CE
:103DA00034B9002201210DF10200FFF78BFE044619
:103DB000FFF786FD7CB9BDF80200BDF8001040EAAF
:103DC00001402860BDF80200BDF8002040EA024131
:103DD000E8A00CF09FFE204638BD70B50546FFF701
:103DE0007FFD044624B94FF22D30FFF76DFD0446E8
:103DF00014B9FFF793FE04462CB90022012128468E
:103E0000FFF760FE0446FFF75BFD204670BD10B56E
:103E1000FFF766FD044624B943F24100FFF754FD65
:103E20000446FFF74DFD204610BD7CB505460E4605
:103E3000FFF756FD044624B94FF46040FFF744FDF8
:103E4000044614B9FFF76AFE04462CB90A22002181
:103E500001A8FFF737FE04462CB90022012168466D
:103E6000FFF730FE04464CB9BDF80400FFF7E8FD4B
:103E70002860BDF80000FFF7D5FD3060FFF720FD9A
:103E800020467CBD10B5FFF72BFD044624B943F254
:103E90006D00FFF719FD0446FFF712FD204610BD27
:103EA00010B5FFF71DFD044624B943F26600FFF785
:103EB0000BFD0446FFF704FD204610BDF8B504468F
:103EC00020128DF80000E0B28DF801000221684652
:103ED000FFF7CAFD06469DF8000000F015FA0546FA
:103EE00025B99DF8010000F00FFA05461DB93046CE
:103EF00000F00AFA05462846F8BD2DE9F0410446CF
:103F0000A14920461AF052FE0746A0491AF0BCFE0D
:103F100006469F491BF016F805461AF093FF80B23B
:103F2000BDE8F08170B504469A4920461AF0ACFE0F
:103F3000064697491BF006F805461AF083FF80B243
:103F400070BD2DE9F04180460D46002140461AF033
:103F5000C5FF0ED38F4940461BF0C0F809D38E49E8
:103F600028461AF0BBFF04D38C4928461BF0B6F84C
:103F700001D2802410E04046FFF7D4FF06B2284665
:103F8000FFF7BBFF07B206F47E41C7F3C81241EA50
:103F90000200FFF793FF04462046BDE8F0812DE9BB
:103FA000F05F0746884615461E46DDE90BABDDF897
:103FB0002890FFF795FC044624B946F21D10FFF740
:103FC00083FC044624B941463846FFF7BAFF04464D
:103FD000FFF776FC84B9FFF783FC044624B946F268
:103FE0001610FFF771FC044624B931462846FFF746
:103FF000A8FF0446FFF764FC84B9FFF771FC044690
:1040000024B946F20B10FFF75FFC044624B9514671
:104010004846FFF796FF0446FFF752FC84B9FFF7C6
:104020005FFC044624B94FF4C240FFF74DFC044640
:1040300024B958460D99FFF784FF0446FFF740FC6A
:104040002046BDE8F09FF8B504460D460022012148
:104050006846FFF737FD06467EB9BDF8001001F44B
:104060007E40FFF7DFFC2060BDF800104FF6FF72C6
:1040700002EAC110FFF7E4FC28603046F8BD2DE9E4
:10408000F05F0746884615461E46DDE90BABDDF8B6
:104090002890FFF725FC044624B94EF21F10FFF7C5
:1040A00013FC044614B9FFF739FD044624B9414610
:1040B0003846FFF7C8FF0446FFF702FCA4B9FFF734
:1040C0000FFC044624B94EF21410FFF7FDFB044622
:1040D00014B9FFF723FD044624B931462846FFF7FB
:1040E000B2FF0446FFF7ECFB24B9FFF7F9FB0446E7
:1040F0000CB955E065E058E00010024034000020A3
:10410000300000200D0A2053485433585F53746127
:104110007274506572696F6469634D65617375721D
:104120006D656E743D2564000D0A20534854335864
:104130005F5374617274506572696F6469634D6531
:10414000617375726D656E74206F6B2000000000E6
:104150000A0D2053485433585F5772697465436F92
:104160006D6D616E6420206572726F723D307825CE
:10417000303278000D0A2073657269616C4E62728C
:104180003D2564200D0A20000000344200002F432A
:1041900000FF7F470000C842000034C20000024315
:1041A0004EF20910FFF790FB044614B9FFF7B6FC76
:1041B000044624B951464846FFF745FF0446FFF739
:1041C0007FFBA4B9FFF78CFB044624B94EF2021022
:1041D000FFF77AFB044614B9FFF7A0FC044624B9A4
:1041E00058460D99FFF72FFF0446FFF769FB20465D
:1041F000BDE8F09F10B50F4800F03FF94CF2503089
:1042000000F03BF910BD10B5642000F0B8F90A4980
:104210000A48FFF70AFE0446214609A00CF07AFC82
:10422000064800680B490860034800680A490860AE
:1042300010BD0000A08601003400002030000020E6
:104240000A0A6572726F72323D3078253032580D2D
:104250000A000000380000203C00002084488069EB
:1042600040F00800824988614FF48040814908602D
:10427000401008607F480C38006820F07F607D495E
:104280000C3908600846006840F0AA600860704772
:1042900010B54FF4804077490860012000F0EDF838
:1042A0004FF4005073490860012000F0E6F84FF029
:1042B0008040704908600A2000F0DFF84FF000509D
:1042C0006C4908600A2000F0D8F810BD10B54FF016
:1042D000005068490860012000F0CFF84FF080409E
:1042E00064490860012000F0C8F84FF400506149AB
:1042F00008600A2000F0C1F84FF480405D49086072
:104300000A2000F0BAF810BD70B5054600268024DA
:104310001DE004EA050020B94FF0804055490860CF
:1043200003E04FF4804053490860012000F0A5F8F5
:104330004FF400504F490860052000F09EF84FF000
:1043400000504C490860012000F097F86410002CE0
:10435000DFDC4FF4804047490860401008600120CE
:1043600000F08BF843480838006800F4804000B142
:1043700001264FF000503F490860142000F07DF8FE
:10438000304670BD70B5044600250AE02000A4F157
:104390000101CCB201D1042070BD4FF47A7000F05D
:1043A0006CF834480838006800F400500028EDD05C
:1043B0002846F1E72DE9F04104460E4617464FF036
:1043C0000008002020704FF480402A4908608025B2
:1043D0001EE04FF4005027490860012000F04DF81E
:1043E0003846FFF7CFFF8046032000F046F821480B
:1043F0000838006800F4804010B12078284320700D
:104400004FF000501B490860012000F036F86D1095
:10441000002DDEDC26B94FF080401649086003E02D
:104420004FF4804013490860012000F026F84FF453
:10443000005010490860052000F01FF84FF00050B0
:104440000C490860C0130860142000F016F84046BC
:10445000BDE8F08110B5FFF71BFF0020FFF754FF08
:1044600004461CB90620FFF74FFF0446204610BD46
:1044700000100240100C01407047002104E000BF12
:1044800000BF00BF00BF491C8142F8D37047000045
:1044900008B5684604F0CAFA08BD08B5684604F0D5
:1044A0000FFB08BD38B504466A46082120460AF0CD
:1044B000FBFD38BD10B542480078012805D104F055
:1044C000F7F90BF07DF804F004FA10BD10B56FF0A9
:1044D000040000F0C6FA3B4800683B49B0FBF1F02D
:1044E0003A490870374800683749B0FBF1F438485A
:1044F0000068C910B1FBF0F04443354800684FF440
:104500007A71B1FBF0F0334908804FF0E020006988
:1045100040F002004FF0E021086108464461006964
:1045200040F00100086110BD2DE9F0470746002664
:104530004FF0E020D0F814902448007807FB00F8F2
:1045400000BFFFF7A5FF4FF0E020856911E04FF0B5
:10455000E0208469AC420CD0AC4202D2281B064455
:1045600003E0A9EB0400284406442546464500D351
:1045700000E0ECE700BFFFF790FFBDE8F08770B503
:1045800004460F480078A0B11348007888B9114854
:104590000088844206DB0F48008894FBF0F528462B
:1045A000FFF780FF0B48008894FBF0F100FB1140FF
:1045B00084B24FF47A7104FB01F0FFF7B5FF70BDD0
:1045C000B10000200000002000127A00440000200A
:1045D0003C1C020846000020B000002030BF70479D
:1045E00072B6704762B67047014600BF704700BFA1
:1045F000554A128802F04002002AF9D0C2B2524B4A
:104600001B1D1A80704710B586B00446012144F284
:10461000040001F067F84C4801F0D6FF4FF4007039
:10462000ADF8140003208DF8160018208DF817003F
:1046300005A9464800F09AFD4FF48060ADF81400DB
:1046400004208DF8170005A9404800F08FFD2520B3
:104650008DF8000003208DF801008DF80200012084
:104660008DF80300684600F0B2F901940020ADF81F
:104670000800ADF80A00ADF80C00ADF810000C20F1
:10468000ADF80E0001A9304801F0E1FF012240F22F
:1046900025512D4802F073F801212B4802F063F8F0
:1046A00006B010BD10B504F003F940F225512648BC
:1046B00002F04AF910B3244802F0C6F8C4B2244804
:1046C000008800F40040C8B92148008800F4804008
:1046D00060B10A2C03D000201D49088020E01C484E
:1046E000008840F400401A49088019E00D2C06D1DA
:1046F0001748008840F480401549088010E01448AD
:104700000088C0F30D0013490C5411480088401C68
:104710000F49088008460088C72801DD002008806E
:1047200004F0D7F810BD02460020704770B505466A
:104730000E46002400BF04E0295D034802F080F823
:10474000641CB442F8DB70BD003801400008014031
:1047500050000020085000200948804709480047C1
:10476000FEE7FEE7FEE7FEE7FEE7FEE7FEE7FEE721
:10477000FEE7FEE704480549054A064B704700007E
:104780004F07000831010008989E002098A80020DB
:1047900098A0002098A0002070B503460C4603E0C6
:1047A00014F8015B03F8015B1500A2F10102F7D1D7
:1047B00070BD30B5034601E003F8011B1400A2F1FF
:1047C0000102F9D130BD10B504467A4951F82410E0
:1047D0004A00794951F824000021FFF7EAFF7749A0
:1047E00051F824207449083951F824000021FFF7BA
:1047F000E0FF012170480830015510BD10B5014699
:104800000023002207E06C4850F8210030F8120025
:1048100000B15B1C521C674850F821009042F2D84E
:1048200064205843634C54F82140B0FBF4F0C0B20C
:1048300010BD2DE9F04704460F460025A9465E4805
:104840000830005D20B95C48103801682046884770
:104850001FB94FF0FF30BDE8F087594850F82400E9
:10486000B7FBF0F6564850F82400B7FBF0F100FB18
:10487000117000B1761C4F4850F82400451E20E00E
:104880004D4850F8240030F8150010B909F101091D
:1048900001E04FF00009B14512D14FF0000808E0E7
:1048A000454850F8240005EB080220F8126008F192
:1048B0000108B045F4D3424850F824006843CAE7E1
:1048C0006D1E002DDCDA4FF0FF30C4E72DE9F0411A
:1048D00004460E4638480830005D38B9364810386E
:1048E0000168204688470120BDE8F081334850F830
:1048F0002400B04217D9324850F82400B6FBF0F13A
:104900002D4850F8240030F81120002507E000233E
:10491000294850F824004F1920F817306D1C954293
:10492000F5DB0020E0E70220DEE770B505460C4627
:1049300004B970BD2048083850F82500261A3146C1
:104940002846FFF7C3FF00BFF3E770B504460E46E5
:1049500031462046FFF76DFF0546681C08B9002068
:1049600070BD1548083850F824002844F8E72DE9B0
:10497000F04104460F46164631462046FFF759FFE0
:104980000546681C10B90020BDE8F0810A490839C5
:1049900051F82410481932463946FFF7FDFE3946D2
:1049A0002046FFF7C2FF0448083850F82400284486
:1049B000EAE70000301B020864000020401B0208E8
:1049C000381B020831490143314A1160704770B504
:1049D000002100230F22C47804B32D4C246804F472
:1049E000E064C4F5E064210AC1F10403CA404478DC
:1049F00004FA03F18478144021430901254C067818
:104A0000A155047804F01F050124AC4005786D1110
:104A1000AD0005F1E025C5F8004109E0047804F097
:104A20001F050124AC401C4D0678761145F8264040
:104A300070BD1A4A0A400243154B1B1F1A6070478B
:104A400039B1134A121D12680243114B1B1D1A6023
:104A500006E00F4A121D126882430D4B1B1D1A609F
:104A60007047042808D14FF0E021096941F00401A2
:104A70004FF0E022116107E04FF0E021096921F0D9
:104A800004014FF0E0221161704700000000FA05B8
:104A90000CED00E000E400E080E100E080FFFF1F9B
:104AA00030B943F2DB028100A1F1C0410A6005E0A8
:104AB00043F2D2028100A1F1C0410A606FF070425E
:104AC000411C8900A1F1C0410A608100A1F1C041EF
:104AD000C1F80421704710280AD118214FF0204254
:104AE0001166402151664FF0FC319166D16610E0AD
:104AF0001821F74A116040214FF02042C2F884107B
:104B00004FF0FC31F24A083211604FF02042C2F8F7
:104B10008C1070471820EE492031086000200906EB
:104B2000C1F8A4004FF0FC30E94928310860091DA4
:104B30000860091D08607047D0E901121143C2687E
:104B40001143026911434269114382691143C269E9
:104B50001143026A1143426A1143826A1143C26AD5
:104B60001143026B114302689200A2F1C04211602E
:104B7000816808290BD101688900A1F1C041096849
:104B800041F0400201688900A1F1C0410A60416B17
:104B90000968426B526841EA0211426B926841EA2D
:104BA0000221426B928941EA0241426B128A41EA38
:104BB0000251426B127D41EA0261426B92691143DC
:104BC0000268521C9200A2F1C0421160C16AB1F5A4
:104BD000804F1BD1816B0968826B526841EA0211D8
:104BE000826B926841EA0221826B128A41EA025189
:104BF000826B127D41EA0261826B92691143026805
:104C00009200A2F1C042C2F8041107E06FF07042B6
:104C100001688900A1F1C041C1F80421704730B595
:104C2000002100220023446844F0080485682C43D6
:104C3000C5682C4305692C43456944EA45248569C8
:104C400044EA4531C4692468C5696D6844EA0524AD
:104C5000C5692D8944EA0544C5692D7B44EA05628E
:104C6000046A2468056A6D6844EA0524056A2D898A
:104C700044EA0544056A2D7B44EA05630468102C68
:104C800005D14FF020442166A266E36608E0904C0F
:104C900021604FF02044C4F888208D4C0C342360F0
:104CA00030BD016841F01001426841EA422182684A
:104CB00041EA4231864A20321160C1680968C268FF
:104CC000526841EA0221C268128941EA0241C2687F
:104CD000127B41EA02617E4A28321160016909684B
:104CE0000269526841EA02210269128941EA0241DD
:104CF0000269127B41EA0261754A2C3211604169F6
:104D000009684269526841EA02214269128941EA0E
:104D100002414269127B41EA02614FF02042C2F82F
:104D2000B0107047002101600221416000218160C4
:104D3000C160016141618161C16101624FF48051D3
:104D40004162490081620021C16201630F21426B0F
:104D50001160426B5160FF21426B91600F21426BE9
:104D6000D160426B1161426B51610021426B9161D4
:104D70000F21826B1160826B5160FF21826B916009
:104D80000F21826BD160826B1161826B51610021B6
:104D9000826B916170471021016000214160816048
:104DA000C160016141618161FC21C2691160C26918
:104DB0005160C2699160C269D160026A1160026A81
:104DC0005160026A9160026AD160704700210160FF
:104DD00041608160FC21C2681160C2685160C26894
:104DE0009160C268D1600269116002695160026914
:104DF00091600269D1604269116042695160426903
:104E000091604269D160704751B18200A2F1C04205
:104E1000126842F001038200A2F1C042136009E06F
:104E20008200A2F1C04212682A4B1A408300A3F10B
:104E3000C0431A60704799B1102808D14FF0204242
:104E4000126E42F004024FF020431A661DE0204A21
:104E5000126842F004024FF02043C3F8802014E0AF
:104E6000102809D14FF02042126E1A4BDB1E1A4057
:104E70004FF020431A6608E0154A1268154BDB1EF6
:104E80001A404FF02043C3F88020704748B11049C2
:104E90002031096841F004014FF02042C2F8A0100F
:104EA00009E00B49203109680A4AD21E11404FF02F
:104EB0002042C2F8A0107047B9B110280CD14FF0B1
:104EC0002042126E42F040024FF020431A661FE06B
:104ED000800000A0FEFF0F00724A126842F04002FC
:104EE0004FF02043C3F8802012E0102808D14FF083
:104EF0002042126E6C4B1A404FF020431A6607E0B6
:104F0000684A1268684B1A404FF02043C3F880206B
:104F1000704701460020102903D14FF02042506F06
:104F200002E0604A14321068704710B5F2B11028E0
:104F300007D14FF020435B6E0B434FF02044636674
:104F400032E0B0F5807F08D1564B1B1D1B680B4328
:104F50004FF02044C4F8843026E0524B24331B68C1
:104F60000B434FF02044C4F8A4301DE0102807D1B3
:104F70004FF020435B6E8B434FF02044636613E099
:104F8000B0F5807F08D1474B1B1D1B688B434FF04A
:104F90002044C4F8843007E0424B24331B688B4321
:104FA0004FF02044C4F8A43010BD10B502460020D4
:104FB0000023102A03D14FF02044636E09E0B2F5BC
:104FC000807F03D1374C241D236802E0354C243404
:104FD000236803EA01040CB1012000E0002010BDA9
:104FE000102807D14FF02042526E8A434FF02043E1
:104FF0005A6613E0B0F5807F08D12A4A121D126864
:105000008A434FF02043C3F8842007E0254A243226
:1050100012688A434FF02043C3F8A420704770B54C
:1050200002460020002300240025102A03D14FF05F
:105030002046736E09E0B2F5807F03D1194E361D0C
:10504000336802E0174E2436336803EA010403EAAA
:10505000D10514B10DB1012000E0002070BD102871
:1050600008D14FF02042526E22EAD1024FF0204385
:105070005A6615E0B0F5807F09D10A4A121D126800
:1050800022EAD1024FF02043C3F8842008E0054A09
:105090002432126822EAD1024FF02043C3F8A42040
:1050A00070470000800000A0BFFF0F0010B504464D
:1050B000CC48844208D10121042000F02DFB0021BE
:1050C000042000F029FB46E0C748844208D10121B2
:1050D000082000F021FB0021082000F01DFB3AE031
:1050E000C248844208D10121102000F015FB0021A4
:1050F000102000F011FB2EE0BD48844208D10121B0
:10510000202000F009FB0021202000F005FB22E018
:10511000B848844208D10121402000F0FDFA002166
:10512000402000F0F9FA16E0B348844208D101218A
:10513000802000F0F1FA0021802000F0EDFA0AE072
:10514000AE48844207D10121801500F0E5FA002124
:10515000A01500F0E1FA10BD10B50121084600F0DD
:10516000DBFA0021012000F0D7FA10BD2DE9F04153
:10517000024600250026002000230024002791F885
:1051800003C00CF00F0591F803C00CF0100CBCF13B
:10519000000F03D091F802C04CEA050591F800C059
:1051A000BCF1000F31D0146800202BE04FF0010C4F
:1051B0000CFA00F3B1F800C00CEA03069E4220D1BD
:1051C00083004FF00F0C0CFA03F7BC4305FA03FC05
:1051D0004CEA040491F803C0BCF1280F06D14FF04B
:1051E000010C0CFA00FCC2F814C00AE091F803C0EC
:1051F000BCF1480F05D14FF0010C0CFA00FCC2F8CD
:1052000010C0401C0828D1D31460B1F800C0BCF114
:10521000FF0F34DD546800202EE000F1080C4FF041
:10522000010808FA0CF3B1F800C00CEA03069E422C
:1052300021D183004FF00F0C0CFA03F7BC4305FAA1
:1052400003FC4CEA040491F803C0BCF1280F05D11B
:1052500000F1080C08FA0CF8C2F8148091F803C0A9
:10526000BCF1480F07D100F1080C4FF0010808FA13
:105270000CF8C2F81080401C0828CED35460BDE85A
:10528000F0814FF6FF710180022181700421C1700D
:1052900070470246002093680B400BB1012000E0EC
:1052A000002070470146886880B27047024600209F
:1052B000D3680B400BB1012000E00020704701468D
:1052C000C86880B2704701617047416170470AB198
:1052D000016100E041617047C16070474FF4803266
:1052E0000A438261816182618269826970470246F4
:1052F0000020434B18684FF68073184040EA0210B4
:1053000008433F4B186070473E49C8617047F0B58D
:105310000A46002300240021002500F00046B6F1D3
:10532000004F02D1364EF16901E0354E7168C0F38D
:10533000034583B200F44016B6F5401F08D121F0B2
:1053400070612F4E766826F070662D4F7E6012E0F9
:1053500000F48016B6F5801F06D1032606FA05F480
:10536000A14341F0706106E0460D360103FA06F6EE
:10537000B14341F0706122B1460D360103FA06F6E1
:10538000314300F00046B6F1004F02D11C4EF161EE
:1053900001E01B4E7160F0BD30B500228B071C0F81
:1053A0000F2303FA04F2164B08338C1053F8243001
:1053B0009343134C08348D1044F8253023468C1049
:1053C00053F824308C07240F00FA04F423430C4CC8
:1053D00008348D1044F8253030BD0A49DC310860AE
:1053E0007047000000080140000C0140001001401F
:1053F0000014014000180140001C01400020014041
:105400000000014000002042DF48006840F0010039
:10541000DD49086008464068DC490840DA494860D0
:1054200008460068DA490840D7490860084600681D
:1054300020F4802008600846406820F4FE004860A0
:105440004FF41F0088607047CF49096821F480310C
:10545000CD4A11601146096821F480211160B0F530
:10546000803F03D0B0F5802F0ED106E0C649096811
:1054700041F48031C44A116007E0C349096841F42E
:10548000A021C14A116000E000BF00BF704710B505
:1054900001460022002300204A11012A02D1BA4C01
:1054A000236806E0022A02D1B74C236A01E0B64C19
:1054B000636A01F01F02012494401C400CB10120DA
:1054C00000E0002010BD38B5002000900024002529
:1054D00000BF3120FFF7DBFF05460098401C00901D
:1054E0000098B0F5A06F01D0002DF2D03120FFF769
:1054F000CEFF08B1012400E00024204638BD01465B
:105500000020A14A106820F0F80040EAC1001060B5
:105510007047A04908607047024600209A4B5868BF
:1055200020F47C1042EA01031843974B58607047FF
:1055300098490866704701460020934A506820F059
:1055400003000843506070478F48406800F00C002B
:105550007047014600208C4A506820F0F000084354
:105560005060704701460020874A506820F4E06090
:1055700008435060704701460020834A506820F479
:10558000605040EAC1005060704729B17E4A527AAB
:1055900002437D4B5A7204E07B4A527A82437A4B33
:1055A0005A7270477B49D831086070470146002025
:1055B000754A506820F4404008435060704700210D
:1055C000714A20321170704A82F82010012802D0EE
:1055D00004280AD104E001216B4A2032117005E051
:1055E0000521694A2032117000E000BF00BF7047FA
:1055F0006949086070476449096A0143624A116257
:105600007047654944390860704730B50021002271
:10561000002400235C4D6D6805F00C0121B10429C4
:1056200005D0082923D105E05C4D056022E05B4DE3
:1056300005601FE0544D6D6805F47012524D6D68A1
:1056400005F48034022505EB92421CB9544D5543B4
:1056500005600BE04C4D6D6805F400351DB1504DF3
:105660005543056002E04D4D5543056002E04B4D4A
:10567000056000BF00BF444D6D6805F0F0010909E9
:10568000484D6B5C0568DD4045603F4D6D6805F435
:10569000E061090A434D6B5C4568DD4085603A4D29
:1056A0006D6805F46051C90A3E4D6B5C4568DD408C
:1056B000C560354D6D6805F44041890B3A4D6B5C12
:1056C000C568B5FBF3F5056130BD29B12E4A5269B5
:1056D00002432D4B5A6104E02B4A526982432A4B04
:1056E0005A61704729B1284A92690243264B9A6150
:1056F00004E0254A92698243234B9A61704729B19D
:10570000214AD2690243204BDA6104E01E4AD26981
:1057100082431D4BDA61704729B11B4AD2680243AC
:10572000194BDA6004E0184AD2688243164BDA60FB
:10573000704729B1144A12690243134B1A6104E0FD
:10574000114A12698243104B1A617047124940395D
:10575000086070470F49C86470470B49C8717047AB
:105760000948406A40F08070074948627047014626
:105770000020054A92680A400AB1012000E000209A
:105780007047014988727047001002400000FFF81E
:10579000FFFFF6FE000042428004424200127A00FF
:1057A00000093D00700000208000002010B5044674
:1057B000FE48844208D10121C014FFF7ADFF00214B
:1057C000E014FFF7A9FFC4E0B4F1804F08D1012134
:1057D0000846FFF7AEFF00210120FFF7AAFFB8E05F
:1057E000F348844208D101210220FFF7A2FF0021E3
:1057F0000220FFF79EFFACE0EE48844208D1012171
:105800000420FFF796FF00210420FFF792FFA0E09D
:10581000E948844208D101210820FFF78AFF0021CE
:105820000820FFF786FF94E0E448844208D1012174
:105830001020FFF77EFF00211020FFF77AFF88E09D
:10584000DF48844208D101212020FFF772FF0021A8
:105850002020FFF76EFF7CE0DA48844208D1012166
:105860004014FFF759FF00216014FFF755FF70E067
:10587000D548844209D10121C804FFF74DFF00211A
:105880004FF40020FFF748FF63E0D048844209D17D
:1058900001210805FFF740FF00214FF48010FFF7BA
:1058A0003BFF56E0CA48844209D101214805FFF771
:1058B00033FF00214FF40010FFF72EFF49E0C548E9
:1058C000844208D101214020FFF733FF002140200E
:1058D000FFF72FFF3DE0C048844208D1012180201E
:1058E000FFF727FF00218020FFF723FF31E0BB48AF
:1058F000844208D101218015FFF71BFF0021A0156C
:10590000FFF717FF25E0B648844209D101210804BA
:10591000FFF702FF00214FF48030FFF7FDFE18E093
:10592000B048844209D101214804FFF7F5FE002167
:105930004FF40030FFF7F0FE0BE0AB48844208D193
:1059400001218804FFF7E8FE00214FF48020FFF7D3
:10595000E3FE10BD00220288944B98420ED0994B72
:1059600098420BD0B0F1804F08D0914B984205D0AF
:10597000904B984202D0904B984204D14FF68F73CF
:105980001A404B881A438D4B984207D08C4B984253
:1059900004D04FF6FF431A40CB881A4302808B880D
:1059A00083850B880385814B98420BD0854B9842A9
:1059B00008D08B4B984205D08A4B984202D08A4B34
:1059C000984201D10B7A038601238382704770B518
:1059D000002400220023058C4FF6FE763540058416
:1059E000028C8388048B4FF68F752C40B51E2C409B
:1059F0000D882C43751E2A400D892A434D882A4361
:105A00006A4DA8420BD06F4DA84208D0744DA842F1
:105A100005D0744DA84202D0734DA84213D14FF661
:105A2000F7752A404D892A434FF6FB752A408D8829
:105A30002A434FF6FF652B404FF6FF552B408D89CB
:105A40002B43CD892B4383800483CD8885860284B4
:105A500070BD70B5002400220023058C4FF6EF7650
:105A600035400584028C8388048B48F6FF752C40F2
:105A70004FF6FF452C400D884FF6FF7606EA0525C8
:105A80002C434FF6DF752A400D8906EA05152A4397
:105A90004D8806EA05152A43444DA84202D0494DD7
:105AA000A8421DD14FF67F752A404D894FF6FF76EB
:105AB00006EA05152A434FF6BF752A408D8806EA87
:105AC00005152A434FF6FF352B404FF2FF752B404B
:105AD0008D8906EA85052B43CD8906EA85052B438A
